{
  "_format": "hh-sol-artifact-1",
  "contractName": "BNPLRouter",
  "sourceName": "contracts/BNPLRouter.sol",
  "abi": [
    {
      "inputs": [
        {
          "internalType": "address",
          "name": "_creditManager",
          "type": "address"
        },
        {
          "internalType": "address",
          "name": "_debtManager",
          "type": "address"
        },
        {
          "internalType": "address",
          "name": "_paymentToken",
          "type": "address"
        }
      ],
      "stateMutability": "nonpayable",
      "type": "constructor"
    },
    {
      "inputs": [
        {
          "internalType": "address",
          "name": "target",
          "type": "address"
        }
      ],
      "name": "AddressEmptyCode",
      "type": "error"
    },
    {
      "inputs": [
        {
          "internalType": "address",
          "name": "account",
          "type": "address"
        }
      ],
      "name": "AddressInsufficientBalance",
      "type": "error"
    },
    {
      "inputs": [],
      "name": "FailedInnerCall",
      "type": "error"
    },
    {
      "inputs": [
        {
          "internalType": "address",
          "name": "owner",
          "type": "address"
        }
      ],
      "name": "OwnableInvalidOwner",
      "type": "error"
    },
    {
      "inputs": [
        {
          "internalType": "address",
          "name": "account",
          "type": "address"
        }
      ],
      "name": "OwnableUnauthorizedAccount",
      "type": "error"
    },
    {
      "inputs": [
        {
          "internalType": "address",
          "name": "token",
          "type": "address"
        }
      ],
      "name": "SafeERC20FailedOperation",
      "type": "error"
    },
    {
      "anonymous": false,
      "inputs": [
        {
          "indexed": true,
          "internalType": "address",
          "name": "user",
          "type": "address"
        },
        {
          "indexed": true,
          "internalType": "address",
          "name": "merchant",
          "type": "address"
        },
        {
          "indexed": false,
          "internalType": "uint256",
          "name": "amount",
          "type": "uint256"
        }
      ],
      "name": "MerchantPaid",
      "type": "event"
    },
    {
      "anonymous": false,
      "inputs": [
        {
          "indexed": true,
          "internalType": "address",
          "name": "previousOwner",
          "type": "address"
        },
        {
          "indexed": true,
          "internalType": "address",
          "name": "newOwner",
          "type": "address"
        }
      ],
      "name": "OwnershipTransferred",
      "type": "event"
    },
    {
      "inputs": [
        {
          "internalType": "uint256",
          "name": "_amount",
          "type": "uint256"
        }
      ],
      "name": "addLiquidity",
      "outputs": [],
      "stateMutability": "nonpayable",
      "type": "function"
    },
    {
      "inputs": [],
      "name": "i_creditManager",
      "outputs": [
        {
          "internalType": "contract CreditManager",
          "name": "",
          "type": "address"
        }
      ],
      "stateMutability": "view",
      "type": "function"
    },
    {
      "inputs": [],
      "name": "i_debtManager",
      "outputs": [
        {
          "internalType": "contract DebtManager",
          "name": "",
          "type": "address"
        }
      ],
      "stateMutability": "view",
      "type": "function"
    },
    {
      "inputs": [],
      "name": "i_paymentToken",
      "outputs": [
        {
          "internalType": "contract IERC20",
          "name": "",
          "type": "address"
        }
      ],
      "stateMutability": "view",
      "type": "function"
    },
    {
      "inputs": [],
      "name": "owner",
      "outputs": [
        {
          "internalType": "address",
          "name": "",
          "type": "address"
        }
      ],
      "stateMutability": "view",
      "type": "function"
    },
    {
      "inputs": [
        {
          "internalType": "address",
          "name": "_user",
          "type": "address"
        },
        {
          "internalType": "address",
          "name": "_merchant",
          "type": "address"
        },
        {
          "internalType": "uint256",
          "name": "_amount",
          "type": "uint256"
        }
      ],
      "name": "payMerchant",
      "outputs": [],
      "stateMutability": "nonpayable",
      "type": "function"
    },
    {
      "inputs": [
        {
          "internalType": "uint256",
          "name": "_amount",
          "type": "uint256"
        }
      ],
      "name": "removeLiquidity",
      "outputs": [],
      "stateMutability": "nonpayable",
      "type": "function"
    },
    {
      "inputs": [],
      "name": "renounceOwnership",
      "outputs": [],
      "stateMutability": "nonpayable",
      "type": "function"
    },
    {
      "inputs": [
        {
          "internalType": "address",
          "name": "_user",
          "type": "address"
        },
        {
          "internalType": "uint256",
          "name": "_amount",
          "type": "uint256"
        }
      ],
      "name": "repayDebt",
      "outputs": [],
      "stateMutability": "nonpayable",
      "type": "function"
    },
    {
      "inputs": [
        {
          "internalType": "address",
          "name": "newOwner",
          "type": "address"
        }
      ],
      "name": "transferOwnership",
      "outputs": [],
      "stateMutability": "nonpayable",
      "type": "function"
    }
  ],
  "bytecode": "0x60806040523480156200001157600080fd5b50604051620015f8380380620015f88339818101604052810190620000379190620002b9565b33600073ffffffffffffffffffffffffffffffffffffffff168173ffffffffffffffffffffffffffffffffffffffff1603620000ad5760006040517f1e4fbdf7000000000000000000000000000000000000000000000000000000008152600401620000a4919062000326565b60405180910390fd5b620000be816200018b60201b60201c565b5082600160006101000a81548173ffffffffffffffffffffffffffffffffffffffff021916908373ffffffffffffffffffffffffffffffffffffffff16021790555081600260006101000a81548173ffffffffffffffffffffffffffffffffffffffff021916908373ffffffffffffffffffffffffffffffffffffffff16021790555080600360006101000a81548173ffffffffffffffffffffffffffffffffffffffff021916908373ffffffffffffffffffffffffffffffffffffffff16021790555050505062000343565b60008060009054906101000a900473ffffffffffffffffffffffffffffffffffffffff169050816000806101000a81548173ffffffffffffffffffffffffffffffffffffffff021916908373ffffffffffffffffffffffffffffffffffffffff1602179055508173ffffffffffffffffffffffffffffffffffffffff168173ffffffffffffffffffffffffffffffffffffffff167f8be0079c531659141344cd1fd0a4f28419497f9722a3daafe3b4186f6b6457e060405160405180910390a35050565b600080fd5b600073ffffffffffffffffffffffffffffffffffffffff82169050919050565b6000620002818262000254565b9050919050565b620002938162000274565b81146200029f57600080fd5b50565b600081519050620002b38162000288565b92915050565b600080600060608486031215620002d557620002d46200024f565b5b6000620002e586828701620002a2565b9350506020620002f886828701620002a2565b92505060406200030b86828701620002a2565b9150509250925092565b620003208162000274565b82525050565b60006020820190506200033d600083018462000315565b92915050565b6112a580620003536000396000f3fe608060405234801561001057600080fd5b506004361061009e5760003560e01c80639c8f9f23116100665780639c8f9f2314610121578063af81c3521461013d578063b93bdb571461015b578063cd2ae95614610177578063f2fde38b146101955761009e565b80631bb9f030146100a357806351c6590a146100c1578063715018a6146100dd57806379e20bdc146100e75780638da5cb5b14610103575b600080fd5b6100ab6101b1565b6040516100b89190610d47565b60405180910390f35b6100db60048036038101906100d69190610d9d565b6101d7565b005b6100e5610229565b005b61010160048036038101906100fc9190610e08565b61023d565b005b61010b61031f565b6040516101189190610e57565b60405180910390f35b61013b60048036038101906101369190610d9d565b610348565b005b6101456103a0565b6040516101529190610e93565b60405180910390f35b61017560048036038101906101709190610eae565b6103c6565b005b61017f61077a565b60405161018c9190610f22565b60405180910390f35b6101af60048036038101906101aa9190610f3d565b6107a0565b005b600260009054906101000a900473ffffffffffffffffffffffffffffffffffffffff1681565b610226333083600360009054906101000a900473ffffffffffffffffffffffffffffffffffffffff1673ffffffffffffffffffffffffffffffffffffffff16610826909392919063ffffffff16565b50565b6102316108a8565b61023b600061092f565b565b61028c333083600360009054906101000a900473ffffffffffffffffffffffffffffffffffffffff1673ffffffffffffffffffffffffffffffffffffffff16610826909392919063ffffffff16565b600260009054906101000a900473ffffffffffffffffffffffffffffffffffffffff1673ffffffffffffffffffffffffffffffffffffffff166322867d7883836040518363ffffffff1660e01b81526004016102e9929190610f79565b600060405180830381600087803b15801561030357600080fd5b505af1158015610317573d6000803e3d6000fd5b505050505050565b60008060009054906101000a900473ffffffffffffffffffffffffffffffffffffffff16905090565b6103506108a8565b61039d3382600360009054906101000a900473ffffffffffffffffffffffffffffffffffffffff1673ffffffffffffffffffffffffffffffffffffffff166109f39092919063ffffffff16565b50565b600160009054906101000a900473ffffffffffffffffffffffffffffffffffffffff1681565b6000600160009054906101000a900473ffffffffffffffffffffffffffffffffffffffff1673ffffffffffffffffffffffffffffffffffffffff16632c333e25856040518263ffffffff1660e01b81526004016104239190610e57565b602060405180830381865afa158015610440573d6000803e3d6000fd5b505050506040513d601f19601f820116820180604052508101906104649190610fb7565b90506000600260009054906101000a900473ffffffffffffffffffffffffffffffffffffffff1673ffffffffffffffffffffffffffffffffffffffff16639a78e72e866040518263ffffffff1660e01b81526004016104c39190610e57565b602060405180830381865afa1580156104e0573d6000803e3d6000fd5b505050506040513d601f19601f820116820180604052508101906105049190610fb7565b90508183826105139190611013565b1115610554576040517f08c379a000000000000000000000000000000000000000000000000000000000815260040161054b906110a4565b60405180910390fd5b600260009054906101000a900473ffffffffffffffffffffffffffffffffffffffff1673ffffffffffffffffffffffffffffffffffffffff1663a443ef0986856040518363ffffffff1660e01b81526004016105b1929190610f79565b600060405180830381600087803b1580156105cb57600080fd5b505af11580156105df573d6000803e3d6000fd5b5050505082600360009054906101000a900473ffffffffffffffffffffffffffffffffffffffff1673ffffffffffffffffffffffffffffffffffffffff166370a08231306040518263ffffffff1660e01b815260040161063f9190610e57565b602060405180830381865afa15801561065c573d6000803e3d6000fd5b505050506040513d601f19601f820116820180604052508101906106809190610fb7565b10156106c1576040517f08c379a00000000000000000000000000000000000000000000000000000000081526004016106b890611110565b60405180910390fd5b61070e8484600360009054906101000a900473ffffffffffffffffffffffffffffffffffffffff1673ffffffffffffffffffffffffffffffffffffffff166109f39092919063ffffffff16565b8373ffffffffffffffffffffffffffffffffffffffff168573ffffffffffffffffffffffffffffffffffffffff167fdad160dc42c6f4037d86b77d020b7860d5f071c05297b84f14777547d08a30708560405161076b9190611130565b60405180910390a35050505050565b600360009054906101000a900473ffffffffffffffffffffffffffffffffffffffff1681565b6107a86108a8565b600073ffffffffffffffffffffffffffffffffffffffff168173ffffffffffffffffffffffffffffffffffffffff160361081a5760006040517f1e4fbdf70000000000000000000000000000000000000000000000000000000081526004016108119190610e57565b60405180910390fd5b6108238161092f565b50565b6108a2848573ffffffffffffffffffffffffffffffffffffffff166323b872dd86868660405160240161085b9392919061114b565b604051602081830303815290604052915060e01b6020820180517bffffffffffffffffffffffffffffffffffffffffffffffffffffffff8381831617835250505050610a72565b50505050565b6108b0610b09565b73ffffffffffffffffffffffffffffffffffffffff166108ce61031f565b73ffffffffffffffffffffffffffffffffffffffff161461092d576108f1610b09565b6040517f118cdaa70000000000000000000000000000000000000000000000000000000081526004016109249190610e57565b60405180910390fd5b565b60008060009054906101000a900473ffffffffffffffffffffffffffffffffffffffff169050816000806101000a81548173ffffffffffffffffffffffffffffffffffffffff021916908373ffffffffffffffffffffffffffffffffffffffff1602179055508173ffffffffffffffffffffffffffffffffffffffff168173ffffffffffffffffffffffffffffffffffffffff167f8be0079c531659141344cd1fd0a4f28419497f9722a3daafe3b4186f6b6457e060405160405180910390a35050565b610a6d838473ffffffffffffffffffffffffffffffffffffffff1663a9059cbb8585604051602401610a26929190610f79565b604051602081830303815290604052915060e01b6020820180517bffffffffffffffffffffffffffffffffffffffffffffffffffffffff8381831617835250505050610a72565b505050565b6000610a9d828473ffffffffffffffffffffffffffffffffffffffff16610b1190919063ffffffff16565b90506000815114158015610ac2575080806020019051810190610ac091906111ba565b155b15610b0457826040517f5274afe7000000000000000000000000000000000000000000000000000000008152600401610afb9190610e57565b60405180910390fd5b505050565b600033905090565b6060610b1f83836000610b27565b905092915050565b606081471015610b6e57306040517fcd786059000000000000000000000000000000000000000000000000000000008152600401610b659190610e57565b60405180910390fd5b6000808573ffffffffffffffffffffffffffffffffffffffff168486604051610b979190611258565b60006040518083038185875af1925050503d8060008114610bd4576040519150601f19603f3d011682016040523d82523d6000602084013e610bd9565b606091505b5091509150610be9868383610bf4565b925050509392505050565b606082610c0957610c0482610c83565b610c7b565b60008251148015610c31575060008473ffffffffffffffffffffffffffffffffffffffff163b145b15610c7357836040517f9996b315000000000000000000000000000000000000000000000000000000008152600401610c6a9190610e57565b60405180910390fd5b819050610c7c565b5b9392505050565b600081511115610c965780518082602001fd5b6040517f1425ea4200000000000000000000000000000000000000000000000000000000815260040160405180910390fd5b600073ffffffffffffffffffffffffffffffffffffffff82169050919050565b6000819050919050565b6000610d0d610d08610d0384610cc8565b610ce8565b610cc8565b9050919050565b6000610d1f82610cf2565b9050919050565b6000610d3182610d14565b9050919050565b610d4181610d26565b82525050565b6000602082019050610d5c6000830184610d38565b92915050565b600080fd5b6000819050919050565b610d7a81610d67565b8114610d8557600080fd5b50565b600081359050610d9781610d71565b92915050565b600060208284031215610db357610db2610d62565b5b6000610dc184828501610d88565b91505092915050565b6000610dd582610cc8565b9050919050565b610de581610dca565b8114610df057600080fd5b50565b600081359050610e0281610ddc565b92915050565b60008060408385031215610e1f57610e1e610d62565b5b6000610e2d85828601610df3565b9250506020610e3e85828601610d88565b9150509250929050565b610e5181610dca565b82525050565b6000602082019050610e6c6000830184610e48565b92915050565b6000610e7d82610d14565b9050919050565b610e8d81610e72565b82525050565b6000602082019050610ea86000830184610e84565b92915050565b600080600060608486031215610ec757610ec6610d62565b5b6000610ed586828701610df3565b9350506020610ee686828701610df3565b9250506040610ef786828701610d88565b9150509250925092565b6000610f0c82610d14565b9050919050565b610f1c81610f01565b82525050565b6000602082019050610f376000830184610f13565b92915050565b600060208284031215610f5357610f52610d62565b5b6000610f6184828501610df3565b91505092915050565b610f7381610d67565b82525050565b6000604082019050610f8e6000830185610e48565b610f9b6020830184610f6a565b9392505050565b600081519050610fb181610d71565b92915050565b600060208284031215610fcd57610fcc610d62565b5b6000610fdb84828501610fa2565b91505092915050565b7f4e487b7100000000000000000000000000000000000000000000000000000000600052601160045260246000fd5b600061101e82610d67565b915061102983610d67565b925082820190508082111561104157611040610fe4565b5b92915050565b600082825260208201905092915050565b7f4578636565647320637265646974206c696d6974000000000000000000000000600082015250565b600061108e601483611047565b915061109982611058565b602082019050919050565b600060208201905081810360008301526110bd81611081565b9050919050565b7f496e73756666696369656e74206c697175696469747900000000000000000000600082015250565b60006110fa601683611047565b9150611105826110c4565b602082019050919050565b60006020820190508181036000830152611129816110ed565b9050919050565b60006020820190506111456000830184610f6a565b92915050565b60006060820190506111606000830186610e48565b61116d6020830185610e48565b61117a6040830184610f6a565b949350505050565b60008115159050919050565b61119781611182565b81146111a257600080fd5b50565b6000815190506111b48161118e565b92915050565b6000602082840312156111d0576111cf610d62565b5b60006111de848285016111a5565b91505092915050565b600081519050919050565b600081905092915050565b60005b8381101561121b578082015181840152602081019050611200565b60008484015250505050565b6000611232826111e7565b61123c81856111f2565b935061124c8185602086016111fd565b80840191505092915050565b60006112648284611227565b91508190509291505056fea264697066735822122039900bb8287a8d96433ff074c312c3d8925ffb4dd772cc9531af5dfb5b6c8c2564736f6c63430008140033",
  "linkReferences": {},
  "deployedLinkReferences": {}
}