{
  "_format": "hh-sol-artifact-1",
  "contractName": "CollateralVault",
  "sourceName": "contracts/CollateralVault.sol",
  "abi": [
    {
      "inputs": [
        {
          "internalType": "address",
          "name": "_router",
          "type": "address"
        },
        {
          "internalType": "uint64",
          "name": "_masterChainSelector",
          "type": "uint64"
        },
        {
          "internalType": "address",
          "name": "_masterReceiver",
          "type": "address"
        }
      ],
      "stateMutability": "nonpayable",
      "type": "constructor"
    },
    {
      "inputs": [
        {
          "internalType": "address",
          "name": "target",
          "type": "address"
        }
      ],
      "name": "AddressEmptyCode",
      "type": "error"
    },
    {
      "inputs": [
        {
          "internalType": "address",
          "name": "account",
          "type": "address"
        }
      ],
      "name": "AddressInsufficientBalance",
      "type": "error"
    },
    {
      "inputs": [],
      "name": "FailedInnerCall",
      "type": "error"
    },
    {
      "inputs": [
        {
          "internalType": "address",
          "name": "router",
          "type": "address"
        }
      ],
      "name": "InvalidRouter",
      "type": "error"
    },
    {
      "inputs": [
        {
          "internalType": "uint256",
          "name": "currentBalance",
          "type": "uint256"
        },
        {
          "internalType": "uint256",
          "name": "calculatedFees",
          "type": "uint256"
        }
      ],
      "name": "NotEnoughBalance",
      "type": "error"
    },
    {
      "inputs": [
        {
          "internalType": "address",
          "name": "owner",
          "type": "address"
        }
      ],
      "name": "OwnableInvalidOwner",
      "type": "error"
    },
    {
      "inputs": [
        {
          "internalType": "address",
          "name": "account",
          "type": "address"
        }
      ],
      "name": "OwnableUnauthorizedAccount",
      "type": "error"
    },
    {
      "inputs": [
        {
          "internalType": "address",
          "name": "token",
          "type": "address"
        }
      ],
      "name": "SafeERC20FailedOperation",
      "type": "error"
    },
    {
      "anonymous": false,
      "inputs": [
        {
          "indexed": true,
          "internalType": "address",
          "name": "user",
          "type": "address"
        },
        {
          "indexed": true,
          "internalType": "address",
          "name": "token",
          "type": "address"
        },
        {
          "indexed": false,
          "internalType": "uint256",
          "name": "amount",
          "type": "uint256"
        },
        {
          "indexed": false,
          "internalType": "uint256",
          "name": "usdValue",
          "type": "uint256"
        }
      ],
      "name": "CollateralDeposited",
      "type": "event"
    },
    {
      "anonymous": false,
      "inputs": [
        {
          "indexed": true,
          "internalType": "address",
          "name": "user",
          "type": "address"
        },
        {
          "indexed": true,
          "internalType": "address",
          "name": "token",
          "type": "address"
        },
        {
          "indexed": false,
          "internalType": "uint256",
          "name": "amount",
          "type": "uint256"
        }
      ],
      "name": "CollateralSeized",
      "type": "event"
    },
    {
      "anonymous": false,
      "inputs": [
        {
          "indexed": true,
          "internalType": "bytes32",
          "name": "messageId",
          "type": "bytes32"
        },
        {
          "indexed": true,
          "internalType": "uint64",
          "name": "destinationChainSelector",
          "type": "uint64"
        },
        {
          "indexed": false,
          "internalType": "address",
          "name": "receiver",
          "type": "address"
        },
        {
          "indexed": false,
          "internalType": "bytes",
          "name": "data",
          "type": "bytes"
        }
      ],
      "name": "MessageSent",
      "type": "event"
    },
    {
      "anonymous": false,
      "inputs": [
        {
          "indexed": true,
          "internalType": "address",
          "name": "previousOwner",
          "type": "address"
        },
        {
          "indexed": true,
          "internalType": "address",
          "name": "newOwner",
          "type": "address"
        }
      ],
      "name": "OwnershipTransferred",
      "type": "event"
    },
    {
      "anonymous": false,
      "inputs": [
        {
          "indexed": true,
          "internalType": "address",
          "name": "user",
          "type": "address"
        },
        {
          "indexed": true,
          "internalType": "address",
          "name": "token",
          "type": "address"
        },
        {
          "indexed": false,
          "internalType": "uint256",
          "name": "amount",
          "type": "uint256"
        }
      ],
      "name": "WithdrawProcessed",
      "type": "event"
    },
    {
      "anonymous": false,
      "inputs": [
        {
          "indexed": true,
          "internalType": "address",
          "name": "user",
          "type": "address"
        },
        {
          "indexed": true,
          "internalType": "address",
          "name": "token",
          "type": "address"
        },
        {
          "indexed": false,
          "internalType": "uint256",
          "name": "amount",
          "type": "uint256"
        }
      ],
      "name": "WithdrawRequested",
      "type": "event"
    },
    {
      "inputs": [],
      "name": "MSG_CREDIT_UPDATE",
      "outputs": [
        {
          "internalType": "uint8",
          "name": "",
          "type": "uint8"
        }
      ],
      "stateMutability": "view",
      "type": "function"
    },
    {
      "inputs": [],
      "name": "MSG_LIQUIDATE",
      "outputs": [
        {
          "internalType": "uint8",
          "name": "",
          "type": "uint8"
        }
      ],
      "stateMutability": "view",
      "type": "function"
    },
    {
      "inputs": [],
      "name": "MSG_WITHDRAW_APPROVED",
      "outputs": [
        {
          "internalType": "uint8",
          "name": "",
          "type": "uint8"
        }
      ],
      "stateMutability": "view",
      "type": "function"
    },
    {
      "inputs": [],
      "name": "MSG_WITHDRAW_REQUEST",
      "outputs": [
        {
          "internalType": "uint8",
          "name": "",
          "type": "uint8"
        }
      ],
      "stateMutability": "view",
      "type": "function"
    },
    {
      "inputs": [
        {
          "components": [
            {
              "internalType": "bytes32",
              "name": "messageId",
              "type": "bytes32"
            },
            {
              "internalType": "uint64",
              "name": "sourceChainSelector",
              "type": "uint64"
            },
            {
              "internalType": "bytes",
              "name": "sender",
              "type": "bytes"
            },
            {
              "internalType": "bytes",
              "name": "data",
              "type": "bytes"
            },
            {
              "components": [
                {
                  "internalType": "address",
                  "name": "token",
                  "type": "address"
                },
                {
                  "internalType": "uint256",
                  "name": "amount",
                  "type": "uint256"
                }
              ],
              "internalType": "struct Client.EVMTokenAmount[]",
              "name": "destTokenAmounts",
              "type": "tuple[]"
            }
          ],
          "internalType": "struct Client.Any2EVMMessage",
          "name": "message",
          "type": "tuple"
        }
      ],
      "name": "ccipReceive",
      "outputs": [],
      "stateMutability": "nonpayable",
      "type": "function"
    },
    {
      "inputs": [
        {
          "internalType": "address",
          "name": "_token",
          "type": "address"
        },
        {
          "internalType": "uint256",
          "name": "_amount",
          "type": "uint256"
        }
      ],
      "name": "deposit",
      "outputs": [],
      "stateMutability": "nonpayable",
      "type": "function"
    },
    {
      "inputs": [],
      "name": "getRouter",
      "outputs": [
        {
          "internalType": "address",
          "name": "",
          "type": "address"
        }
      ],
      "stateMutability": "view",
      "type": "function"
    },
    {
      "inputs": [],
      "name": "i_masterChainSelector",
      "outputs": [
        {
          "internalType": "uint64",
          "name": "",
          "type": "uint64"
        }
      ],
      "stateMutability": "view",
      "type": "function"
    },
    {
      "inputs": [],
      "name": "i_masterReceiver",
      "outputs": [
        {
          "internalType": "address",
          "name": "",
          "type": "address"
        }
      ],
      "stateMutability": "view",
      "type": "function"
    },
    {
      "inputs": [],
      "name": "i_router",
      "outputs": [
        {
          "internalType": "contract IRouterClient",
          "name": "",
          "type": "address"
        }
      ],
      "stateMutability": "view",
      "type": "function"
    },
    {
      "inputs": [],
      "name": "owner",
      "outputs": [
        {
          "internalType": "address",
          "name": "",
          "type": "address"
        }
      ],
      "stateMutability": "view",
      "type": "function"
    },
    {
      "inputs": [],
      "name": "renounceOwnership",
      "outputs": [],
      "stateMutability": "nonpayable",
      "type": "function"
    },
    {
      "inputs": [
        {
          "internalType": "address",
          "name": "_token",
          "type": "address"
        },
        {
          "internalType": "uint256",
          "name": "_amount",
          "type": "uint256"
        }
      ],
      "name": "requestWithdraw",
      "outputs": [],
      "stateMutability": "nonpayable",
      "type": "function"
    },
    {
      "inputs": [
        {
          "internalType": "address",
          "name": "",
          "type": "address"
        }
      ],
      "name": "s_tokenPriceFeeds",
      "outputs": [
        {
          "internalType": "address",
          "name": "",
          "type": "address"
        }
      ],
      "stateMutability": "view",
      "type": "function"
    },
    {
      "inputs": [
        {
          "internalType": "address",
          "name": "",
          "type": "address"
        },
        {
          "internalType": "address",
          "name": "",
          "type": "address"
        }
      ],
      "name": "s_userCollateral",
      "outputs": [
        {
          "internalType": "uint256",
          "name": "",
          "type": "uint256"
        }
      ],
      "stateMutability": "view",
      "type": "function"
    },
    {
      "inputs": [
        {
          "internalType": "address",
          "name": "_token",
          "type": "address"
        },
        {
          "internalType": "address",
          "name": "_feed",
          "type": "address"
        }
      ],
      "name": "setPriceFeed",
      "outputs": [],
      "stateMutability": "nonpayable",
      "type": "function"
    },
    {
      "inputs": [
        {
          "internalType": "bytes4",
          "name": "interfaceId",
          "type": "bytes4"
        }
      ],
      "name": "supportsInterface",
      "outputs": [
        {
          "internalType": "bool",
          "name": "",
          "type": "bool"
        }
      ],
      "stateMutability": "pure",
      "type": "function"
    },
    {
      "inputs": [
        {
          "internalType": "address",
          "name": "newOwner",
          "type": "address"
        }
      ],
      "name": "transferOwnership",
      "outputs": [],
      "stateMutability": "nonpayable",
      "type": "function"
    }
  ],
  "bytecode": "0x6101006040523480156200001257600080fd5b506040516200336038038062003360833981810160405281019062000038919062000371565b3383838386600073ffffffffffffffffffffffffffffffffffffffff168173ffffffffffffffffffffffffffffffffffffffff1603620000b25760006040517fd7f73334000000000000000000000000000000000000000000000000000000008152600401620000a99190620003de565b60405180910390fd5b8073ffffffffffffffffffffffffffffffffffffffff1660808173ffffffffffffffffffffffffffffffffffffffff1681525050508273ffffffffffffffffffffffffffffffffffffffff1660a08173ffffffffffffffffffffffffffffffffffffffff16815250508167ffffffffffffffff1660c08167ffffffffffffffff16815250508073ffffffffffffffffffffffffffffffffffffffff1660e08173ffffffffffffffffffffffffffffffffffffffff1681525050505050600073ffffffffffffffffffffffffffffffffffffffff168173ffffffffffffffffffffffffffffffffffffffff1603620001e35760006040517f1e4fbdf7000000000000000000000000000000000000000000000000000000008152600401620001da9190620003de565b60405180910390fd5b620001f481620001fe60201b60201c565b50505050620003fb565b60008060009054906101000a900473ffffffffffffffffffffffffffffffffffffffff169050816000806101000a81548173ffffffffffffffffffffffffffffffffffffffff021916908373ffffffffffffffffffffffffffffffffffffffff1602179055508173ffffffffffffffffffffffffffffffffffffffff168173ffffffffffffffffffffffffffffffffffffffff167f8be0079c531659141344cd1fd0a4f28419497f9722a3daafe3b4186f6b6457e060405160405180910390a35050565b600080fd5b600073ffffffffffffffffffffffffffffffffffffffff82169050919050565b6000620002f482620002c7565b9050919050565b6200030681620002e7565b81146200031257600080fd5b50565b6000815190506200032681620002fb565b92915050565b600067ffffffffffffffff82169050919050565b6200034b816200032c565b81146200035757600080fd5b50565b6000815190506200036b8162000340565b92915050565b6000806000606084860312156200038d576200038c620002c2565b5b60006200039d8682870162000315565b9350506020620003b0868287016200035a565b9250506040620003c38682870162000315565b9150509250925092565b620003d881620002e7565b82525050565b6000602082019050620003f56000830184620003cd565b92915050565b60805160a05160c05160e051612eec62000474600039600081816109b901528181610aea01528181610d3a0152611121015260008181610a1001528181610b6301528181610c6901528181610ced015261108b01526000818161081501528181610b270152610c2c015260006109930152612eec6000f3fe608060405234801561001057600080fd5b50600436106101165760003560e01c80638da5cb5b116100a2578063c0297fc011610071578063c0297fc014610297578063d64d3a45146102c7578063f21d77b5146102e5578063f2e58b1514610315578063f2fde38b1461033357610116565b80638da5cb5b1461021f578063a886443f1461023d578063b0f479a11461025b578063b5f8b8e71461027957610116565b806347e7ef24116100e957806347e7ef24146101a3578063581bdd16146101bf578063715018a6146101dd57806376e11286146101e757806385572ffb1461020357610116565b806301ffc9a71461011b5780630250ccb01461014b5780630c1f144014610169578063397a1b2814610187575b600080fd5b61013560048036038101906101309190611c2e565b61034f565b6040516101429190611c76565b60405180910390f35b610153610421565b6040516101609190611cad565b60405180910390f35b610171610426565b60405161017e9190611cad565b60405180910390f35b6101a1600480360381019061019c9190611d5c565b61042b565b005b6101bd60048036038101906101b89190611d5c565b61058e565b005b6101c7610813565b6040516101d49190611dfb565b60405180910390f35b6101e5610837565b005b61020160048036038101906101fc9190611e16565b61084b565b005b61021d60048036038101906102189190611e7a565b6108d5565b005b610227610961565b6040516102349190611ed2565b60405180910390f35b61024561098a565b6040516102529190611cad565b60405180910390f35b61026361098f565b6040516102709190611ed2565b60405180910390f35b6102816109b7565b60405161028e9190611ed2565b60405180910390f35b6102b160048036038101906102ac9190611eed565b6109db565b6040516102be9190611ed2565b60405180910390f35b6102cf610a0e565b6040516102dc9190611f3d565b60405180910390f35b6102ff60048036038101906102fa9190611e16565b610a32565b60405161030c9190611f67565b60405180910390f35b61031d610a57565b60405161032a9190611cad565b60405180910390f35b61034d60048036038101906103489190611eed565b610a5c565b005b60007f85572ffb000000000000000000000000000000000000000000000000000000007bffffffffffffffffffffffffffffffffffffffffffffffffffffffff1916827bffffffffffffffffffffffffffffffffffffffffffffffffffffffff1916148061041a57507f01ffc9a7000000000000000000000000000000000000000000000000000000007bffffffffffffffffffffffffffffffffffffffffffffffffffffffff1916827bffffffffffffffffffffffffffffffffffffffffffffffffffffffff1916145b9050919050565b600481565b600181565b80600160003373ffffffffffffffffffffffffffffffffffffffff1673ffffffffffffffffffffffffffffffffffffffff16815260200190815260200160002060008473ffffffffffffffffffffffffffffffffffffffff1673ffffffffffffffffffffffffffffffffffffffff1681526020019081526020016000205410156104ea576040517f08c379a00000000000000000000000000000000000000000000000000000000081526004016104e190611fdf565b60405180910390fd5b600060023384846000604051602001610507959493929190611fff565b6040516020818303038152906040529050610523816000610ae2565b508273ffffffffffffffffffffffffffffffffffffffff163373ffffffffffffffffffffffffffffffffffffffff167f684a72064b64d0086ceb0035fc0d62aa0e9cf8b355bf49e956a943bdda24f6e0846040516105819190611f67565b60405180910390a3505050565b600073ffffffffffffffffffffffffffffffffffffffff16600260008473ffffffffffffffffffffffffffffffffffffffff1673ffffffffffffffffffffffffffffffffffffffff16815260200190815260200160002060009054906101000a900473ffffffffffffffffffffffffffffffffffffffff1673ffffffffffffffffffffffffffffffffffffffff160361065c576040517f08c379a00000000000000000000000000000000000000000000000000000000081526004016106539061209e565b60405180910390fd5b6000811161069f576040517f08c379a00000000000000000000000000000000000000000000000000000000081526004016106969061210a565b60405180910390fd5b6106cc3330838573ffffffffffffffffffffffffffffffffffffffff16610d78909392919063ffffffff16565b80600160003373ffffffffffffffffffffffffffffffffffffffff1673ffffffffffffffffffffffffffffffffffffffff16815260200190815260200160002060008473ffffffffffffffffffffffffffffffffffffffff1673ffffffffffffffffffffffffffffffffffffffff16815260200190815260200160002060008282546107589190612159565b92505081905550600061076b8383610dfa565b90506000600133858585604051602001610789959493929190611fff565b60405160208183030381529060405290506107a5816000610ae2565b508373ffffffffffffffffffffffffffffffffffffffff163373ffffffffffffffffffffffffffffffffffffffff167f95d16db8c4932fcf5d6de67364791e7178ec505c7d3829a8b34d18959c01552c858560405161080592919061218d565b60405180910390a350505050565b7f000000000000000000000000000000000000000000000000000000000000000081565b61083f610f3e565b6108496000610fc5565b565b610853610f3e565b80600260008473ffffffffffffffffffffffffffffffffffffffff1673ffffffffffffffffffffffffffffffffffffffff16815260200190815260200160002060006101000a81548173ffffffffffffffffffffffffffffffffffffffff021916908373ffffffffffffffffffffffffffffffffffffffff1602179055505050565b6108dd61098f565b73ffffffffffffffffffffffffffffffffffffffff163373ffffffffffffffffffffffffffffffffffffffff161461094c57336040517fd7f733340000000000000000000000000000000000000000000000000000000081526004016109439190611ed2565b60405180910390fd5b61095e8161095990612560565b611089565b50565b60008060009054906101000a900473ffffffffffffffffffffffffffffffffffffffff16905090565b600381565b60007f0000000000000000000000000000000000000000000000000000000000000000905090565b7f000000000000000000000000000000000000000000000000000000000000000081565b60026020528060005260406000206000915054906101000a900473ffffffffffffffffffffffffffffffffffffffff1681565b7f000000000000000000000000000000000000000000000000000000000000000081565b6001602052816000526040600020602052806000526040600020600091509150505481565b600281565b610a64610f3e565b600073ffffffffffffffffffffffffffffffffffffffff168173ffffffffffffffffffffffffffffffffffffffff1603610ad65760006040517f1e4fbdf7000000000000000000000000000000000000000000000000000000008152600401610acd9190611ed2565b60405180910390fd5b610adf81610fc5565b50565b600080610b217f00000000000000000000000000000000000000000000000000000000000000008560008087610b19576000610b1c565b60005b611214565b905060007f000000000000000000000000000000000000000000000000000000000000000073ffffffffffffffffffffffffffffffffffffffff166320487ded7f0000000000000000000000000000000000000000000000000000000000000000846040518363ffffffff1660e01b8152600401610ba0929190612779565b602060405180830381865afa158015610bbd573d6000803e3d6000fd5b505050506040513d601f19601f82011682018060405250810190610be191906127be565b905080471015610c2a5747816040517f8f0f4206000000000000000000000000000000000000000000000000000000008152600401610c2192919061218d565b60405180910390fd5b7f000000000000000000000000000000000000000000000000000000000000000073ffffffffffffffffffffffffffffffffffffffff166396f4e9f9827f0000000000000000000000000000000000000000000000000000000000000000856040518463ffffffff1660e01b8152600401610ca6929190612779565b60206040518083038185885af1158015610cc4573d6000803e3d6000fd5b50505050506040513d601f19601f82011682018060405250810190610ce99190612800565b92507f000000000000000000000000000000000000000000000000000000000000000067ffffffffffffffff16837f2b046eaedd72143b31efbfc1753f3e57682918353770498fae99edbc3d8375967f000000000000000000000000000000000000000000000000000000000000000088604051610d68929190612877565b60405180910390a3505092915050565b610df4848573ffffffffffffffffffffffffffffffffffffffff166323b872dd868686604051602401610dad939291906128a7565b604051602081830303815290604052915060e01b6020820180517bffffffffffffffffffffffffffffffffffffffffffffffffffffffff83818316178352505050506113d9565b50505050565b600080600260008573ffffffffffffffffffffffffffffffffffffffff1673ffffffffffffffffffffffffffffffffffffffff16815260200190815260200160002060009054906101000a900473ffffffffffffffffffffffffffffffffffffffff16905060008173ffffffffffffffffffffffffffffffffffffffff1663feaf968c6040518163ffffffff1660e01b815260040160a060405180830381865afa158015610eac573d6000803e3d6000fd5b505050506040513d601f19601f82011682018060405250810190610ed09190612956565b50505091505060008113610f19576040517f08c379a0000000000000000000000000000000000000000000000000000000008152600401610f1090612a1d565b60405180910390fd5b6305f5e1008185610f2a9190612a3d565b610f349190612aae565b9250505092915050565b610f46611470565b73ffffffffffffffffffffffffffffffffffffffff16610f64610961565b73ffffffffffffffffffffffffffffffffffffffff1614610fc357610f87611470565b6040517f118cdaa7000000000000000000000000000000000000000000000000000000008152600401610fba9190611ed2565b60405180910390fd5b565b60008060009054906101000a900473ffffffffffffffffffffffffffffffffffffffff169050816000806101000a81548173ffffffffffffffffffffffffffffffffffffffff021916908373ffffffffffffffffffffffffffffffffffffffff1602179055508173ffffffffffffffffffffffffffffffffffffffff168173ffffffffffffffffffffffffffffffffffffffff167f8be0079c531659141344cd1fd0a4f28419497f9722a3daafe3b4186f6b6457e060405160405180910390a35050565b7f000000000000000000000000000000000000000000000000000000000000000067ffffffffffffffff16816020015167ffffffffffffffff1614611103576040517f08c379a00000000000000000000000000000000000000000000000000000000081526004016110fa90612b2b565b60405180910390fd5b6000816040015180602001905181019061111d9190612b89565b90507f000000000000000000000000000000000000000000000000000000000000000073ffffffffffffffffffffffffffffffffffffffff168173ffffffffffffffffffffffffffffffffffffffff16146111ad576040517f08c379a00000000000000000000000000000000000000000000000000000000081526004016111a490612c02565b60405180910390fd5b60008060008085606001518060200190518101906111cb9190612c4e565b9350935093509350600360ff168460ff16036111f1576111ec838383611478565b61120c565b600460ff168460ff160361120b5761120a83838361165f565b5b5b505050505050565b61121c611b4d565b60008067ffffffffffffffff811115611238576112376121cc565b5b60405190808252806020026020018201604052801561127157816020015b61125e611b92565b8152602001906001900390816112565790505b509050600073ffffffffffffffffffffffffffffffffffffffff168573ffffffffffffffffffffffffffffffffffffffff16141580156112b15750600084115b1561135857600167ffffffffffffffff8111156112d1576112d06121cc565b5b60405190808252806020026020018201604052801561130a57816020015b6112f7611b92565b8152602001906001900390816112ef5790505b50905060405180604001604052808673ffffffffffffffffffffffffffffffffffffffff168152602001858152508160008151811061134c5761134b612cb5565b5b60200260200101819052505b6040518060a00160405280886040516020016113749190611ed2565b60405160208183030381529060405281526020018781526020018281526020018473ffffffffffffffffffffffffffffffffffffffff1681526020016113ca604051806020016040528062030d40815250611898565b81525091505095945050505050565b6000611404828473ffffffffffffffffffffffffffffffffffffffff1661191790919063ffffffff16565b905060008151141580156114295750808060200190518101906114279190612d10565b155b1561146b57826040517f5274afe70000000000000000000000000000000000000000000000000000000081526004016114629190611ed2565b60405180910390fd5b505050565b600033905090565b80600160008573ffffffffffffffffffffffffffffffffffffffff1673ffffffffffffffffffffffffffffffffffffffff16815260200190815260200160002060008473ffffffffffffffffffffffffffffffffffffffff1673ffffffffffffffffffffffffffffffffffffffff168152602001908152602001600020541015611537576040517f08c379a000000000000000000000000000000000000000000000000000000000815260040161152e90612daf565b60405180910390fd5b80600160008573ffffffffffffffffffffffffffffffffffffffff1673ffffffffffffffffffffffffffffffffffffffff16815260200190815260200160002060008473ffffffffffffffffffffffffffffffffffffffff1673ffffffffffffffffffffffffffffffffffffffff16815260200190815260200160002060008282546115c39190612dcf565b925050819055506115f583828473ffffffffffffffffffffffffffffffffffffffff1661192d9092919063ffffffff16565b8173ffffffffffffffffffffffffffffffffffffffff168373ffffffffffffffffffffffffffffffffffffffff167ff53524b5bef56ee69a9f337643ce6496e0390ac430f953e8649abaf807a639d2836040516116529190611f67565b60405180910390a3505050565b600081905081600160008673ffffffffffffffffffffffffffffffffffffffff1673ffffffffffffffffffffffffffffffffffffffff16815260200190815260200160002060008573ffffffffffffffffffffffffffffffffffffffff1673ffffffffffffffffffffffffffffffffffffffff16815260200190815260200160002054101561176857600160008573ffffffffffffffffffffffffffffffffffffffff1673ffffffffffffffffffffffffffffffffffffffff16815260200190815260200160002060008473ffffffffffffffffffffffffffffffffffffffff1673ffffffffffffffffffffffffffffffffffffffff1681526020019081526020016000205490505b80600160008673ffffffffffffffffffffffffffffffffffffffff1673ffffffffffffffffffffffffffffffffffffffff16815260200190815260200160002060008573ffffffffffffffffffffffffffffffffffffffff1673ffffffffffffffffffffffffffffffffffffffff16815260200190815260200160002060008282546117f49190612dcf565b9250508190555061182d611806610961565b828573ffffffffffffffffffffffffffffffffffffffff1661192d9092919063ffffffff16565b8273ffffffffffffffffffffffffffffffffffffffff168473ffffffffffffffffffffffffffffffffffffffff167f1284277b7d46f4a42632238bce8963722a8d26209ca7aa951d890666eb5156ea8360405161188a9190611f67565b60405180910390a350505050565b60606397a657c960e01b826040516024016118b39190612e1f565b604051602081830303815290604052907bffffffffffffffffffffffffffffffffffffffffffffffffffffffff19166020820180517bffffffffffffffffffffffffffffffffffffffffffffffffffffffff83818316178352505050509050919050565b6060611925838360006119ac565b905092915050565b6119a7838473ffffffffffffffffffffffffffffffffffffffff1663a9059cbb8585604051602401611960929190612e3a565b604051602081830303815290604052915060e01b6020820180517bffffffffffffffffffffffffffffffffffffffffffffffffffffffff83818316178352505050506113d9565b505050565b6060814710156119f357306040517fcd7860590000000000000000000000000000000000000000000000000000000081526004016119ea9190611ed2565b60405180910390fd5b6000808573ffffffffffffffffffffffffffffffffffffffff168486604051611a1c9190612e9f565b60006040518083038185875af1925050503d8060008114611a59576040519150601f19603f3d011682016040523d82523d6000602084013e611a5e565b606091505b5091509150611a6e868383611a79565b925050509392505050565b606082611a8e57611a8982611b08565b611b00565b60008251148015611ab6575060008473ffffffffffffffffffffffffffffffffffffffff163b145b15611af857836040517f9996b315000000000000000000000000000000000000000000000000000000008152600401611aef9190611ed2565b60405180910390fd5b819050611b01565b5b9392505050565b600081511115611b1b5780518082602001fd5b6040517f1425ea4200000000000000000000000000000000000000000000000000000000815260040160405180910390fd5b6040518060a00160405280606081526020016060815260200160608152602001600073ffffffffffffffffffffffffffffffffffffffff168152602001606081525090565b6040518060400160405280600073ffffffffffffffffffffffffffffffffffffffff168152602001600081525090565b6000604051905090565b600080fd5b600080fd5b60007fffffffff0000000000000000000000000000000000000000000000000000000082169050919050565b611c0b81611bd6565b8114611c1657600080fd5b50565b600081359050611c2881611c02565b92915050565b600060208284031215611c4457611c43611bcc565b5b6000611c5284828501611c19565b91505092915050565b60008115159050919050565b611c7081611c5b565b82525050565b6000602082019050611c8b6000830184611c67565b92915050565b600060ff82169050919050565b611ca781611c91565b82525050565b6000602082019050611cc26000830184611c9e565b92915050565b600073ffffffffffffffffffffffffffffffffffffffff82169050919050565b6000611cf382611cc8565b9050919050565b611d0381611ce8565b8114611d0e57600080fd5b50565b600081359050611d2081611cfa565b92915050565b6000819050919050565b611d3981611d26565b8114611d4457600080fd5b50565b600081359050611d5681611d30565b92915050565b60008060408385031215611d7357611d72611bcc565b5b6000611d8185828601611d11565b9250506020611d9285828601611d47565b9150509250929050565b6000819050919050565b6000611dc1611dbc611db784611cc8565b611d9c565b611cc8565b9050919050565b6000611dd382611da6565b9050919050565b6000611de582611dc8565b9050919050565b611df581611dda565b82525050565b6000602082019050611e106000830184611dec565b92915050565b60008060408385031215611e2d57611e2c611bcc565b5b6000611e3b85828601611d11565b9250506020611e4c85828601611d11565b9150509250929050565b600080fd5b600060a08284031215611e7157611e70611e56565b5b81905092915050565b600060208284031215611e9057611e8f611bcc565b5b600082013567ffffffffffffffff811115611eae57611ead611bd1565b5b611eba84828501611e5b565b91505092915050565b611ecc81611ce8565b82525050565b6000602082019050611ee76000830184611ec3565b92915050565b600060208284031215611f0357611f02611bcc565b5b6000611f1184828501611d11565b91505092915050565b600067ffffffffffffffff82169050919050565b611f3781611f1a565b82525050565b6000602082019050611f526000830184611f2e565b92915050565b611f6181611d26565b82525050565b6000602082019050611f7c6000830184611f58565b92915050565b600082825260208201905092915050565b7f496e73756666696369656e7420636f6c6c61746572616c000000000000000000600082015250565b6000611fc9601783611f82565b9150611fd482611f93565b602082019050919050565b60006020820190508181036000830152611ff881611fbc565b9050919050565b600060a0820190506120146000830188611c9e565b6120216020830187611ec3565b61202e6040830186611ec3565b61203b6060830185611f58565b6120486080830184611f58565b9695505050505050565b7f546f6b656e206e6f7420737570706f7274656400000000000000000000000000600082015250565b6000612088601383611f82565b915061209382612052565b602082019050919050565b600060208201905081810360008301526120b78161207b565b9050919050565b7f416d6f756e74206d7573742062652067726561746572207468616e2030000000600082015250565b60006120f4601d83611f82565b91506120ff826120be565b602082019050919050565b60006020820190508181036000830152612123816120e7565b9050919050565b7f4e487b7100000000000000000000000000000000000000000000000000000000600052601160045260246000fd5b600061216482611d26565b915061216f83611d26565b92508282019050808211156121875761218661212a565b5b92915050565b60006040820190506121a26000830185611f58565b6121af6020830184611f58565b9392505050565b600080fd5b6000601f19601f8301169050919050565b7f4e487b7100000000000000000000000000000000000000000000000000000000600052604160045260246000fd5b612204826121bb565b810181811067ffffffffffffffff82111715612223576122226121cc565b5b80604052505050565b6000612236611bc2565b905061224282826121fb565b919050565b600080fd5b6000819050919050565b61225f8161224c565b811461226a57600080fd5b50565b60008135905061227c81612256565b92915050565b61228b81611f1a565b811461229657600080fd5b50565b6000813590506122a881612282565b92915050565b600080fd5b600080fd5b600067ffffffffffffffff8211156122d3576122d26121cc565b5b6122dc826121bb565b9050602081019050919050565b82818337600083830152505050565b600061230b612306846122b8565b61222c565b905082815260208101848484011115612327576123266122b3565b5b6123328482856122e9565b509392505050565b600082601f83011261234f5761234e6122ae565b5b813561235f8482602086016122f8565b91505092915050565b600067ffffffffffffffff821115612383576123826121cc565b5b602082029050602081019050919050565b600080fd5b6000604082840312156123af576123ae6121b6565b5b6123b9604061222c565b905060006123c984828501611d11565b60008301525060206123dd84828501611d47565b60208301525092915050565b60006123fc6123f784612368565b61222c565b9050808382526020820190506040840283018581111561241f5761241e612394565b5b835b8181101561244857806124348882612399565b845260208401935050604081019050612421565b5050509392505050565b600082601f830112612467576124666122ae565b5b81356124778482602086016123e9565b91505092915050565b600060a08284031215612496576124956121b6565b5b6124a060a061222c565b905060006124b08482850161226d565b60008301525060206124c484828501612299565b602083015250604082013567ffffffffffffffff8111156124e8576124e7612247565b5b6124f48482850161233a565b604083015250606082013567ffffffffffffffff81111561251857612517612247565b5b6125248482850161233a565b606083015250608082013567ffffffffffffffff81111561254857612547612247565b5b61255484828501612452565b60808301525092915050565b600061256c3683612480565b9050919050565b600081519050919050565b600082825260208201905092915050565b60005b838110156125ad578082015181840152602081019050612592565b60008484015250505050565b60006125c482612573565b6125ce818561257e565b93506125de81856020860161258f565b6125e7816121bb565b840191505092915050565b600081519050919050565b600082825260208201905092915050565b6000819050602082019050919050565b61262781611ce8565b82525050565b61263681611d26565b82525050565b604082016000820151612652600085018261261e565b506020820151612665602085018261262d565b50505050565b6000612677838361263c565b60408301905092915050565b6000602082019050919050565b600061269b826125f2565b6126a581856125fd565b93506126b08361260e565b8060005b838110156126e15781516126c8888261266b565b97506126d383612683565b9250506001810190506126b4565b5085935050505092915050565b600060a083016000830151848203600086015261270b82826125b9565b9150506020830151848203602086015261272582826125b9565b9150506040830151848203604086015261273f8282612690565b9150506060830151612754606086018261261e565b506080830151848203608086015261276c82826125b9565b9150508091505092915050565b600060408201905061278e6000830185611f2e565b81810360208301526127a081846126ee565b90509392505050565b6000815190506127b881611d30565b92915050565b6000602082840312156127d4576127d3611bcc565b5b60006127e2848285016127a9565b91505092915050565b6000815190506127fa81612256565b92915050565b60006020828403121561281657612815611bcc565b5b6000612824848285016127eb565b91505092915050565b600082825260208201905092915050565b600061284982612573565b612853818561282d565b935061286381856020860161258f565b61286c816121bb565b840191505092915050565b600060408201905061288c6000830185611ec3565b818103602083015261289e818461283e565b90509392505050565b60006060820190506128bc6000830186611ec3565b6128c96020830185611ec3565b6128d66040830184611f58565b949350505050565b600069ffffffffffffffffffff82169050919050565b6128fd816128de565b811461290857600080fd5b50565b60008151905061291a816128f4565b92915050565b6000819050919050565b61293381612920565b811461293e57600080fd5b50565b6000815190506129508161292a565b92915050565b600080600080600060a0868803121561297257612971611bcc565b5b60006129808882890161290b565b955050602061299188828901612941565b94505060406129a2888289016127a9565b93505060606129b3888289016127a9565b92505060806129c48882890161290b565b9150509295509295909350565b7f496e76616c696420707269636500000000000000000000000000000000000000600082015250565b6000612a07600d83611f82565b9150612a12826129d1565b602082019050919050565b60006020820190508181036000830152612a36816129fa565b9050919050565b6000612a4882611d26565b9150612a5383611d26565b9250828202612a6181611d26565b91508282048414831517612a7857612a7761212a565b5b5092915050565b7f4e487b7100000000000000000000000000000000000000000000000000000000600052601260045260246000fd5b6000612ab982611d26565b9150612ac483611d26565b925082612ad457612ad3612a7f565b5b828204905092915050565b7f496e76616c696420736f7572636520636861696e000000000000000000000000600082015250565b6000612b15601483611f82565b9150612b2082612adf565b602082019050919050565b60006020820190508181036000830152612b4481612b08565b9050919050565b6000612b5682611cc8565b9050919050565b612b6681612b4b565b8114612b7157600080fd5b50565b600081519050612b8381612b5d565b92915050565b600060208284031215612b9f57612b9e611bcc565b5b6000612bad84828501612b74565b91505092915050565b7f496e76616c69642073656e646572000000000000000000000000000000000000600082015250565b6000612bec600e83611f82565b9150612bf782612bb6565b602082019050919050565b60006020820190508181036000830152612c1b81612bdf565b9050919050565b612c2b81611c91565b8114612c3657600080fd5b50565b600081519050612c4881612c22565b92915050565b60008060008060808587031215612c6857612c67611bcc565b5b6000612c7687828801612c39565b9450506020612c8787828801612b74565b9350506040612c9887828801612b74565b9250506060612ca9878288016127a9565b91505092959194509250565b7f4e487b7100000000000000000000000000000000000000000000000000000000600052603260045260246000fd5b612ced81611c5b565b8114612cf857600080fd5b50565b600081519050612d0a81612ce4565b92915050565b600060208284031215612d2657612d25611bcc565b5b6000612d3484828501612cfb565b91505092915050565b7f496e73756666696369656e7420636f6c6c61746572616c20666f72207769746860008201527f6472617700000000000000000000000000000000000000000000000000000000602082015250565b6000612d99602483611f82565b9150612da482612d3d565b604082019050919050565b60006020820190508181036000830152612dc881612d8c565b9050919050565b6000612dda82611d26565b9150612de583611d26565b9250828203905081811115612dfd57612dfc61212a565b5b92915050565b602082016000820151612e19600085018261262d565b50505050565b6000602082019050612e346000830184612e03565b92915050565b6000604082019050612e4f6000830185611ec3565b612e5c6020830184611f58565b9392505050565b600081905092915050565b6000612e7982612573565b612e838185612e63565b9350612e9381856020860161258f565b80840191505092915050565b6000612eab8284612e6e565b91508190509291505056fea26469706673582212208e6ccc83cc38ff63f75b0f83866956a1b859d9be8979bf157c1b8ae89070b67864736f6c63430008140033",
  "linkReferences": {},
  "deployedLinkReferences": {}
}