{
  "_format": "hh-sol-artifact-1",
  "contractName": "MasterCCIPReceiver",
  "sourceName": "contracts/MasterCCIPReceiver.sol",
  "abi": [
    {
      "inputs": [
        {
          "internalType": "address",
          "name": "_router",
          "type": "address"
        },
        {
          "internalType": "address",
          "name": "_creditManager",
          "type": "address"
        },
        {
          "internalType": "address",
          "name": "_debtManager",
          "type": "address"
        }
      ],
      "stateMutability": "nonpayable",
      "type": "constructor"
    },
    {
      "inputs": [
        {
          "internalType": "address",
          "name": "router",
          "type": "address"
        }
      ],
      "name": "InvalidRouter",
      "type": "error"
    },
    {
      "inputs": [
        {
          "internalType": "address",
          "name": "owner",
          "type": "address"
        }
      ],
      "name": "OwnableInvalidOwner",
      "type": "error"
    },
    {
      "inputs": [
        {
          "internalType": "address",
          "name": "account",
          "type": "address"
        }
      ],
      "name": "OwnableUnauthorizedAccount",
      "type": "error"
    },
    {
      "anonymous": false,
      "inputs": [
        {
          "indexed": true,
          "internalType": "bytes32",
          "name": "messageId",
          "type": "bytes32"
        },
        {
          "indexed": true,
          "internalType": "uint64",
          "name": "sourceChainSelector",
          "type": "uint64"
        },
        {
          "indexed": false,
          "internalType": "address",
          "name": "sender",
          "type": "address"
        }
      ],
      "name": "MessageReceived",
      "type": "event"
    },
    {
      "anonymous": false,
      "inputs": [
        {
          "indexed": true,
          "internalType": "address",
          "name": "previousOwner",
          "type": "address"
        },
        {
          "indexed": true,
          "internalType": "address",
          "name": "newOwner",
          "type": "address"
        }
      ],
      "name": "OwnershipTransferred",
      "type": "event"
    },
    {
      "anonymous": false,
      "inputs": [
        {
          "indexed": true,
          "internalType": "address",
          "name": "user",
          "type": "address"
        },
        {
          "indexed": true,
          "internalType": "uint64",
          "name": "chainId",
          "type": "uint64"
        },
        {
          "indexed": false,
          "internalType": "address",
          "name": "token",
          "type": "address"
        },
        {
          "indexed": false,
          "internalType": "uint256",
          "name": "amount",
          "type": "uint256"
        }
      ],
      "name": "WithdrawApproved",
      "type": "event"
    },
    {
      "inputs": [],
      "name": "MSG_CREDIT_UPDATE",
      "outputs": [
        {
          "internalType": "uint8",
          "name": "",
          "type": "uint8"
        }
      ],
      "stateMutability": "view",
      "type": "function"
    },
    {
      "inputs": [],
      "name": "MSG_WITHDRAW_APPROVED",
      "outputs": [
        {
          "internalType": "uint8",
          "name": "",
          "type": "uint8"
        }
      ],
      "stateMutability": "view",
      "type": "function"
    },
    {
      "inputs": [],
      "name": "MSG_WITHDRAW_REQUEST",
      "outputs": [
        {
          "internalType": "uint8",
          "name": "",
          "type": "uint8"
        }
      ],
      "stateMutability": "view",
      "type": "function"
    },
    {
      "inputs": [
        {
          "components": [
            {
              "internalType": "bytes32",
              "name": "messageId",
              "type": "bytes32"
            },
            {
              "internalType": "uint64",
              "name": "sourceChainSelector",
              "type": "uint64"
            },
            {
              "internalType": "bytes",
              "name": "sender",
              "type": "bytes"
            },
            {
              "internalType": "bytes",
              "name": "data",
              "type": "bytes"
            },
            {
              "components": [
                {
                  "internalType": "address",
                  "name": "token",
                  "type": "address"
                },
                {
                  "internalType": "uint256",
                  "name": "amount",
                  "type": "uint256"
                }
              ],
              "internalType": "struct Client.EVMTokenAmount[]",
              "name": "destTokenAmounts",
              "type": "tuple[]"
            }
          ],
          "internalType": "struct Client.Any2EVMMessage",
          "name": "message",
          "type": "tuple"
        }
      ],
      "name": "ccipReceive",
      "outputs": [],
      "stateMutability": "nonpayable",
      "type": "function"
    },
    {
      "inputs": [],
      "name": "getRouter",
      "outputs": [
        {
          "internalType": "address",
          "name": "",
          "type": "address"
        }
      ],
      "stateMutability": "view",
      "type": "function"
    },
    {
      "inputs": [],
      "name": "i_creditManager",
      "outputs": [
        {
          "internalType": "contract CreditManager",
          "name": "",
          "type": "address"
        }
      ],
      "stateMutability": "view",
      "type": "function"
    },
    {
      "inputs": [],
      "name": "i_debtManager",
      "outputs": [
        {
          "internalType": "contract DebtManager",
          "name": "",
          "type": "address"
        }
      ],
      "stateMutability": "view",
      "type": "function"
    },
    {
      "inputs": [],
      "name": "owner",
      "outputs": [
        {
          "internalType": "address",
          "name": "",
          "type": "address"
        }
      ],
      "stateMutability": "view",
      "type": "function"
    },
    {
      "inputs": [],
      "name": "renounceOwnership",
      "outputs": [],
      "stateMutability": "nonpayable",
      "type": "function"
    },
    {
      "inputs": [
        {
          "internalType": "uint64",
          "name": "",
          "type": "uint64"
        },
        {
          "internalType": "address",
          "name": "",
          "type": "address"
        }
      ],
      "name": "s_satelliteTokenFeeds",
      "outputs": [
        {
          "internalType": "address",
          "name": "",
          "type": "address"
        }
      ],
      "stateMutability": "view",
      "type": "function"
    },
    {
      "inputs": [
        {
          "internalType": "uint64",
          "name": "",
          "type": "uint64"
        },
        {
          "internalType": "address",
          "name": "",
          "type": "address"
        }
      ],
      "name": "s_trustedSenders",
      "outputs": [
        {
          "internalType": "bool",
          "name": "",
          "type": "bool"
        }
      ],
      "stateMutability": "view",
      "type": "function"
    },
    {
      "inputs": [
        {
          "internalType": "uint64",
          "name": "_chainId",
          "type": "uint64"
        },
        {
          "internalType": "address",
          "name": "_token",
          "type": "address"
        },
        {
          "internalType": "address",
          "name": "_feed",
          "type": "address"
        }
      ],
      "name": "setSatelliteTokenFeed",
      "outputs": [],
      "stateMutability": "nonpayable",
      "type": "function"
    },
    {
      "inputs": [
        {
          "internalType": "uint64",
          "name": "_chainId",
          "type": "uint64"
        },
        {
          "internalType": "address",
          "name": "_sender",
          "type": "address"
        },
        {
          "internalType": "bool",
          "name": "_trusted",
          "type": "bool"
        }
      ],
      "name": "setTrustedSender",
      "outputs": [],
      "stateMutability": "nonpayable",
      "type": "function"
    },
    {
      "inputs": [
        {
          "internalType": "bytes4",
          "name": "interfaceId",
          "type": "bytes4"
        }
      ],
      "name": "supportsInterface",
      "outputs": [
        {
          "internalType": "bool",
          "name": "",
          "type": "bool"
        }
      ],
      "stateMutability": "pure",
      "type": "function"
    },
    {
      "inputs": [
        {
          "internalType": "address",
          "name": "newOwner",
          "type": "address"
        }
      ],
      "name": "transferOwnership",
      "outputs": [],
      "stateMutability": "nonpayable",
      "type": "function"
    }
  ],
  "bytecode": "0x60a06040523480156200001157600080fd5b506040516200266d3803806200266d833981810160405281019062000037919062000323565b3383600073ffffffffffffffffffffffffffffffffffffffff168173ffffffffffffffffffffffffffffffffffffffff1603620000ae5760006040517fd7f73334000000000000000000000000000000000000000000000000000000008152600401620000a5919062000390565b60405180910390fd5b8073ffffffffffffffffffffffffffffffffffffffff1660808173ffffffffffffffffffffffffffffffffffffffff168152505050600073ffffffffffffffffffffffffffffffffffffffff168173ffffffffffffffffffffffffffffffffffffffff1603620001585760006040517f1e4fbdf70000000000000000000000000000000000000000000000000000000081526004016200014f919062000390565b60405180910390fd5b6200016981620001f560201b60201c565b5081600160006101000a81548173ffffffffffffffffffffffffffffffffffffffff021916908373ffffffffffffffffffffffffffffffffffffffff16021790555080600260006101000a81548173ffffffffffffffffffffffffffffffffffffffff021916908373ffffffffffffffffffffffffffffffffffffffff160217905550505050620003ad565b60008060009054906101000a900473ffffffffffffffffffffffffffffffffffffffff169050816000806101000a81548173ffffffffffffffffffffffffffffffffffffffff021916908373ffffffffffffffffffffffffffffffffffffffff1602179055508173ffffffffffffffffffffffffffffffffffffffff168173ffffffffffffffffffffffffffffffffffffffff167f8be0079c531659141344cd1fd0a4f28419497f9722a3daafe3b4186f6b6457e060405160405180910390a35050565b600080fd5b600073ffffffffffffffffffffffffffffffffffffffff82169050919050565b6000620002eb82620002be565b9050919050565b620002fd81620002de565b81146200030957600080fd5b50565b6000815190506200031d81620002f2565b92915050565b6000806000606084860312156200033f576200033e620002b9565b5b60006200034f868287016200030c565b935050602062000362868287016200030c565b925050604062000375868287016200030c565b9150509250925092565b6200038a81620002de565b82525050565b6000602082019050620003a760008301846200037f565b92915050565b6080516122a4620003c9600039600061067501526122a46000f3fe608060405234801561001057600080fd5b50600436106100f55760003560e01c806385572ffb11610097578063af81c35211610066578063af81c35214610260578063b0f479a11461027e578063f2e58b151461029c578063f2fde38b146102ba576100f5565b806385572ffb146101d85780638da5cb5b146101f45780638fd6f8cd14610212578063a886443f14610242576100f5565b80634410459d116100d35780634410459d14610166578063715018a6146101825780637273559b1461018c5780638553877b146101a8576100f5565b806301ffc9a7146100fa5780630c1f14401461012a5780631bb9f03014610148575b600080fd5b610114600480360381019061010f919061132e565b6102d6565b6040516101219190611376565b60405180910390f35b6101326103a8565b60405161013f91906113ad565b60405180910390f35b6101506103ad565b60405161015d9190611447565b60405180910390f35b610180600480360381019061017b919061150c565b6103d3565b005b61018a61045c565b005b6101a660048036038101906101a1919061155f565b610470565b005b6101c260048036038101906101bd91906115b2565b610520565b6040516101cf9190611376565b60405180910390f35b6101f260048036038101906101ed9190611616565b61054f565b005b6101fc6105db565b604051610209919061166e565b60405180910390f35b61022c600480360381019061022791906115b2565b610604565b604051610239919061166e565b60405180910390f35b61024a610646565b60405161025791906113ad565b60405180910390f35b61026861064b565b60405161027591906116aa565b60405180910390f35b610286610671565b604051610293919061166e565b60405180910390f35b6102a4610699565b6040516102b191906113ad565b60405180910390f35b6102d460048036038101906102cf91906116c5565b61069e565b005b60007f85572ffb000000000000000000000000000000000000000000000000000000007bffffffffffffffffffffffffffffffffffffffffffffffffffffffff1916827bffffffffffffffffffffffffffffffffffffffffffffffffffffffff191614806103a157507f01ffc9a7000000000000000000000000000000000000000000000000000000007bffffffffffffffffffffffffffffffffffffffffffffffffffffffff1916827bffffffffffffffffffffffffffffffffffffffffffffffffffffffff1916145b9050919050565b600181565b600260009054906101000a900473ffffffffffffffffffffffffffffffffffffffff1681565b6103db610724565b80600360008567ffffffffffffffff1667ffffffffffffffff16815260200190815260200160002060008473ffffffffffffffffffffffffffffffffffffffff1673ffffffffffffffffffffffffffffffffffffffff16815260200190815260200160002060006101000a81548160ff021916908315150217905550505050565b610464610724565b61046e60006107ab565b565b610478610724565b80600460008567ffffffffffffffff1667ffffffffffffffff16815260200190815260200160002060008473ffffffffffffffffffffffffffffffffffffffff1673ffffffffffffffffffffffffffffffffffffffff16815260200190815260200160002060006101000a81548173ffffffffffffffffffffffffffffffffffffffff021916908373ffffffffffffffffffffffffffffffffffffffff160217905550505050565b60036020528160005260406000206020528060005260406000206000915091509054906101000a900460ff1681565b610557610671565b73ffffffffffffffffffffffffffffffffffffffff163373ffffffffffffffffffffffffffffffffffffffff16146105c657336040517fd7f733340000000000000000000000000000000000000000000000000000000081526004016105bd919061166e565b60405180910390fd5b6105d8816105d390611aa6565b61086f565b50565b60008060009054906101000a900473ffffffffffffffffffffffffffffffffffffffff16905090565b60046020528160005260406000206020528060005260406000206000915091509054906101000a900473ffffffffffffffffffffffffffffffffffffffff1681565b600381565b600160009054906101000a900473ffffffffffffffffffffffffffffffffffffffff1681565b60007f0000000000000000000000000000000000000000000000000000000000000000905090565b600281565b6106a6610724565b600073ffffffffffffffffffffffffffffffffffffffff168173ffffffffffffffffffffffffffffffffffffffff16036107185760006040517f1e4fbdf700000000000000000000000000000000000000000000000000000000815260040161070f919061166e565b60405180910390fd5b610721816107ab565b50565b61072c610a89565b73ffffffffffffffffffffffffffffffffffffffff1661074a6105db565b73ffffffffffffffffffffffffffffffffffffffff16146107a95761076d610a89565b6040517f118cdaa70000000000000000000000000000000000000000000000000000000081526004016107a0919061166e565b60405180910390fd5b565b60008060009054906101000a900473ffffffffffffffffffffffffffffffffffffffff169050816000806101000a81548173ffffffffffffffffffffffffffffffffffffffff021916908373ffffffffffffffffffffffffffffffffffffffff1602179055508173ffffffffffffffffffffffffffffffffffffffff168173ffffffffffffffffffffffffffffffffffffffff167f8be0079c531659141344cd1fd0a4f28419497f9722a3daafe3b4186f6b6457e060405160405180910390a35050565b600081604001518060200190518101906108899190611af7565b905060036000836020015167ffffffffffffffff1667ffffffffffffffff16815260200190815260200160002060008273ffffffffffffffffffffffffffffffffffffffff1673ffffffffffffffffffffffffffffffffffffffff16815260200190815260200160002060009054906101000a900460ff16610940576040517f08c379a000000000000000000000000000000000000000000000000000000000815260040161093790611b81565b60405180910390fd5b600080600080600086606001518060200190518101906109609190611be2565b94509450945094509450866020015167ffffffffffffffff1687600001517fcde44b4f1d4a51abfed5cbe2b4ae24632539d99980c5988af6d4e2eb990c235a886040516109ad919061166e565b60405180910390a3600160ff168560ff1603610a5f57600160009054906101000a900473ffffffffffffffffffffffffffffffffffffffff1673ffffffffffffffffffffffffffffffffffffffff166328b2858685896020015186856040518563ffffffff1660e01b8152600401610a289493929190611c7b565b600060405180830381600087803b158015610a4257600080fd5b505af1158015610a56573d6000803e3d6000fd5b50505050610a80565b600260ff168560ff1603610a7f57610a7e8484848a602001518a610a91565b5b5b50505050505050565b600033905090565b6000610a9e838686610e92565b90506000600160009054906101000a900473ffffffffffffffffffffffffffffffffffffffff1673ffffffffffffffffffffffffffffffffffffffff16632c333e25886040518263ffffffff1660e01b8152600401610afd919061166e565b602060405180830381865afa158015610b1a573d6000803e3d6000fd5b505050506040513d601f19601f82011682018060405250810190610b3e9190611cc0565b90506000600260009054906101000a900473ffffffffffffffffffffffffffffffffffffffff1673ffffffffffffffffffffffffffffffffffffffff16639a78e72e896040518263ffffffff1660e01b8152600401610b9d919061166e565b602060405180830381865afa158015610bba573d6000803e3d6000fd5b505050506040513d601f19601f82011682018060405250810190610bde9190611cc0565b90506000600160009054906101000a900473ffffffffffffffffffffffffffffffffffffffff1673ffffffffffffffffffffffffffffffffffffffff16639f55682e8a6040518263ffffffff1660e01b8152600401610c3d919061166e565b602060405180830381865afa158015610c5a573d6000803e3d6000fd5b505050506040513d601f19601f82011682018060405250810190610c7e9190611cc0565b905083811015610c915750505050610e8b565b60008482610c9f9190611d1c565b90506000600160009054906101000a900473ffffffffffffffffffffffffffffffffffffffff1673ffffffffffffffffffffffffffffffffffffffff1663f4ea93d86040518163ffffffff1660e01b8152600401602060405180830381865afa158015610d10573d6000803e3d6000fd5b505050506040513d601f19601f82011682018060405250810190610d349190611cc0565b600160009054906101000a900473ffffffffffffffffffffffffffffffffffffffff1673ffffffffffffffffffffffffffffffffffffffff1663ff6f1ca16040518163ffffffff1660e01b8152600401602060405180830381865afa158015610da1573d6000803e3d6000fd5b505050506040513d601f19601f82011682018060405250810190610dc59190611cc0565b83610dd09190611d50565b610dda9190611dc1565b9050838110610e8457600160009054906101000a900473ffffffffffffffffffffffffffffffffffffffff1673ffffffffffffffffffffffffffffffffffffffff1663f48418fe8c8a8d8a6040518563ffffffff1660e01b8152600401610e449493929190611c7b565b600060405180830381600087803b158015610e5e57600080fd5b505af1158015610e72573d6000803e3d6000fd5b50505050610e8388888d8d8d61102e565b5b5050505050505b5050505050565b600080600460008667ffffffffffffffff1667ffffffffffffffff16815260200190815260200160002060008573ffffffffffffffffffffffffffffffffffffffff1673ffffffffffffffffffffffffffffffffffffffff16815260200190815260200160002060009054906101000a900473ffffffffffffffffffffffffffffffffffffffff169050600073ffffffffffffffffffffffffffffffffffffffff168173ffffffffffffffffffffffffffffffffffffffff1603610f8b576040517f08c379a0000000000000000000000000000000000000000000000000000000008152600401610f8290611e3e565b60405180910390fd5b600081905060008173ffffffffffffffffffffffffffffffffffffffff1663feaf968c6040518163ffffffff1660e01b815260040160a060405180830381865afa158015610fdd573d6000803e3d6000fd5b505050506040513d601f19601f820116820180604052508101906110019190611ed6565b5050509150506305f5e10081866110189190611d50565b6110229190611dc1565b93505050509392505050565b600060038484846040516020016110489493929190611f51565b604051602081830303815290604052905060006040518060a0016040528087604051602001611077919061166e565b6040516020818303038152906040528152602001838152602001600067ffffffffffffffff8111156110ac576110ab611708565b5b6040519080825280602002602001820160405280156110e557816020015b6110d2611292565b8152602001906001900390816110ca5790505b508152602001600073ffffffffffffffffffffffffffffffffffffffff168152602001611122604051806020016040528062030d40815250611213565b815250905061112f610671565b73ffffffffffffffffffffffffffffffffffffffff166396f4e9f9600089846040518463ffffffff1660e01b815260040161116b92919061219c565b60206040518083038185885af1158015611189573d6000803e3d6000fd5b50505050506040513d601f19601f820116820180604052508101906111ae91906121e1565b508667ffffffffffffffff168573ffffffffffffffffffffffffffffffffffffffff167f288167c6b1742957b5cb19fd071c309378dfbc2796ba317fe956a3f000350173868660405161120292919061220e565b60405180910390a350505050505050565b60606397a657c960e01b8260405160240161122e9190612253565b604051602081830303815290604052907bffffffffffffffffffffffffffffffffffffffffffffffffffffffff19166020820180517bffffffffffffffffffffffffffffffffffffffffffffffffffffffff83818316178352505050509050919050565b6040518060400160405280600073ffffffffffffffffffffffffffffffffffffffff168152602001600081525090565b6000604051905090565b600080fd5b600080fd5b60007fffffffff0000000000000000000000000000000000000000000000000000000082169050919050565b61130b816112d6565b811461131657600080fd5b50565b60008135905061132881611302565b92915050565b600060208284031215611344576113436112cc565b5b600061135284828501611319565b91505092915050565b60008115159050919050565b6113708161135b565b82525050565b600060208201905061138b6000830184611367565b92915050565b600060ff82169050919050565b6113a781611391565b82525050565b60006020820190506113c2600083018461139e565b92915050565b600073ffffffffffffffffffffffffffffffffffffffff82169050919050565b6000819050919050565b600061140d611408611403846113c8565b6113e8565b6113c8565b9050919050565b600061141f826113f2565b9050919050565b600061143182611414565b9050919050565b61144181611426565b82525050565b600060208201905061145c6000830184611438565b92915050565b600067ffffffffffffffff82169050919050565b61147f81611462565b811461148a57600080fd5b50565b60008135905061149c81611476565b92915050565b60006114ad826113c8565b9050919050565b6114bd816114a2565b81146114c857600080fd5b50565b6000813590506114da816114b4565b92915050565b6114e98161135b565b81146114f457600080fd5b50565b600081359050611506816114e0565b92915050565b600080600060608486031215611525576115246112cc565b5b60006115338682870161148d565b9350506020611544868287016114cb565b9250506040611555868287016114f7565b9150509250925092565b600080600060608486031215611578576115776112cc565b5b60006115868682870161148d565b9350506020611597868287016114cb565b92505060406115a8868287016114cb565b9150509250925092565b600080604083850312156115c9576115c86112cc565b5b60006115d78582860161148d565b92505060206115e8858286016114cb565b9150509250929050565b600080fd5b600060a0828403121561160d5761160c6115f2565b5b81905092915050565b60006020828403121561162c5761162b6112cc565b5b600082013567ffffffffffffffff81111561164a576116496112d1565b5b611656848285016115f7565b91505092915050565b611668816114a2565b82525050565b6000602082019050611683600083018461165f565b92915050565b600061169482611414565b9050919050565b6116a481611689565b82525050565b60006020820190506116bf600083018461169b565b92915050565b6000602082840312156116db576116da6112cc565b5b60006116e9848285016114cb565b91505092915050565b600080fd5b6000601f19601f8301169050919050565b7f4e487b7100000000000000000000000000000000000000000000000000000000600052604160045260246000fd5b611740826116f7565b810181811067ffffffffffffffff8211171561175f5761175e611708565b5b80604052505050565b60006117726112c2565b905061177e8282611737565b919050565b600080fd5b6000819050919050565b61179b81611788565b81146117a657600080fd5b50565b6000813590506117b881611792565b92915050565b600080fd5b600080fd5b600067ffffffffffffffff8211156117e3576117e2611708565b5b6117ec826116f7565b9050602081019050919050565b82818337600083830152505050565b600061181b611816846117c8565b611768565b905082815260208101848484011115611837576118366117c3565b5b6118428482856117f9565b509392505050565b600082601f83011261185f5761185e6117be565b5b813561186f848260208601611808565b91505092915050565b600067ffffffffffffffff82111561189357611892611708565b5b602082029050602081019050919050565b600080fd5b6000819050919050565b6118bc816118a9565b81146118c757600080fd5b50565b6000813590506118d9816118b3565b92915050565b6000604082840312156118f5576118f46116f2565b5b6118ff6040611768565b9050600061190f848285016114cb565b6000830152506020611923848285016118ca565b60208301525092915050565b600061194261193d84611878565b611768565b90508083825260208201905060408402830185811115611965576119646118a4565b5b835b8181101561198e578061197a88826118df565b845260208401935050604081019050611967565b5050509392505050565b600082601f8301126119ad576119ac6117be565b5b81356119bd84826020860161192f565b91505092915050565b600060a082840312156119dc576119db6116f2565b5b6119e660a0611768565b905060006119f6848285016117a9565b6000830152506020611a0a8482850161148d565b602083015250604082013567ffffffffffffffff811115611a2e57611a2d611783565b5b611a3a8482850161184a565b604083015250606082013567ffffffffffffffff811115611a5e57611a5d611783565b5b611a6a8482850161184a565b606083015250608082013567ffffffffffffffff811115611a8e57611a8d611783565b5b611a9a84828501611998565b60808301525092915050565b6000611ab236836119c6565b9050919050565b6000611ac4826113c8565b9050919050565b611ad481611ab9565b8114611adf57600080fd5b50565b600081519050611af181611acb565b92915050565b600060208284031215611b0d57611b0c6112cc565b5b6000611b1b84828501611ae2565b91505092915050565b600082825260208201905092915050565b7f556e747275737465642073656e64657200000000000000000000000000000000600082015250565b6000611b6b601083611b24565b9150611b7682611b35565b602082019050919050565b60006020820190508181036000830152611b9a81611b5e565b9050919050565b611baa81611391565b8114611bb557600080fd5b50565b600081519050611bc781611ba1565b92915050565b600081519050611bdc816118b3565b92915050565b600080600080600060a08688031215611bfe57611bfd6112cc565b5b6000611c0c88828901611bb8565b9550506020611c1d88828901611ae2565b9450506040611c2e88828901611ae2565b9350506060611c3f88828901611bcd565b9250506080611c5088828901611bcd565b9150509295509295909350565b611c6681611462565b82525050565b611c75816118a9565b82525050565b6000608082019050611c90600083018761165f565b611c9d6020830186611c5d565b611caa604083018561165f565b611cb76060830184611c6c565b95945050505050565b600060208284031215611cd657611cd56112cc565b5b6000611ce484828501611bcd565b91505092915050565b7f4e487b7100000000000000000000000000000000000000000000000000000000600052601160045260246000fd5b6000611d27826118a9565b9150611d32836118a9565b9250828203905081811115611d4a57611d49611ced565b5b92915050565b6000611d5b826118a9565b9150611d66836118a9565b9250828202611d74816118a9565b91508282048414831517611d8b57611d8a611ced565b5b5092915050565b7f4e487b7100000000000000000000000000000000000000000000000000000000600052601260045260246000fd5b6000611dcc826118a9565b9150611dd7836118a9565b925082611de757611de6611d92565b5b828204905092915050565b7f4e6f206665656420666f756e6400000000000000000000000000000000000000600082015250565b6000611e28600d83611b24565b9150611e3382611df2565b602082019050919050565b60006020820190508181036000830152611e5781611e1b565b9050919050565b600069ffffffffffffffffffff82169050919050565b611e7d81611e5e565b8114611e8857600080fd5b50565b600081519050611e9a81611e74565b92915050565b6000819050919050565b611eb381611ea0565b8114611ebe57600080fd5b50565b600081519050611ed081611eaa565b92915050565b600080600080600060a08688031215611ef257611ef16112cc565b5b6000611f0088828901611e8b565b9550506020611f1188828901611ec1565b9450506040611f2288828901611bcd565b9350506060611f3388828901611bcd565b9250506080611f4488828901611e8b565b9150509295509295909350565b6000608082019050611f66600083018761139e565b611f73602083018661165f565b611f80604083018561165f565b611f8d6060830184611c6c565b95945050505050565b600081519050919050565b600082825260208201905092915050565b60005b83811015611fd0578082015181840152602081019050611fb5565b60008484015250505050565b6000611fe782611f96565b611ff18185611fa1565b9350612001818560208601611fb2565b61200a816116f7565b840191505092915050565b600081519050919050565b600082825260208201905092915050565b6000819050602082019050919050565b61204a816114a2565b82525050565b612059816118a9565b82525050565b6040820160008201516120756000850182612041565b5060208201516120886020850182612050565b50505050565b600061209a838361205f565b60408301905092915050565b6000602082019050919050565b60006120be82612015565b6120c88185612020565b93506120d383612031565b8060005b838110156121045781516120eb888261208e565b97506120f6836120a6565b9250506001810190506120d7565b5085935050505092915050565b600060a083016000830151848203600086015261212e8282611fdc565b915050602083015184820360208601526121488282611fdc565b9150506040830151848203604086015261216282826120b3565b91505060608301516121776060860182612041565b506080830151848203608086015261218f8282611fdc565b9150508091505092915050565b60006040820190506121b16000830185611c5d565b81810360208301526121c38184612111565b90509392505050565b6000815190506121db81611792565b92915050565b6000602082840312156121f7576121f66112cc565b5b6000612205848285016121cc565b91505092915050565b6000604082019050612223600083018561165f565b6122306020830184611c6c565b9392505050565b60208201600082015161224d6000850182612050565b50505050565b60006020820190506122686000830184612237565b9291505056fea2646970667358221220e1626b431a83091b4ccf70da352b793315bb0ed1a60c91b43783de608a9c899664736f6c63430008140033",
  "linkReferences": {},
  "deployedLinkReferences": {}
}