{
  "_format": "hh-sol-artifact-1",
  "contractName": "DebtManager",
  "sourceName": "contracts/DebtManager.sol",
  "abi": [
    {
      "inputs": [],
      "stateMutability": "nonpayable",
      "type": "constructor"
    },
    {
      "inputs": [
        {
          "internalType": "address",
          "name": "owner",
          "type": "address"
        }
      ],
      "name": "OwnableInvalidOwner",
      "type": "error"
    },
    {
      "inputs": [
        {
          "internalType": "address",
          "name": "account",
          "type": "address"
        }
      ],
      "name": "OwnableUnauthorizedAccount",
      "type": "error"
    },
    {
      "anonymous": false,
      "inputs": [
        {
          "indexed": true,
          "internalType": "address",
          "name": "user",
          "type": "address"
        },
        {
          "indexed": false,
          "internalType": "uint256",
          "name": "amount",
          "type": "uint256"
        }
      ],
      "name": "DebtCreated",
      "type": "event"
    },
    {
      "anonymous": false,
      "inputs": [
        {
          "indexed": true,
          "internalType": "address",
          "name": "user",
          "type": "address"
        },
        {
          "indexed": false,
          "internalType": "uint256",
          "name": "amount",
          "type": "uint256"
        }
      ],
      "name": "DebtRepaid",
      "type": "event"
    },
    {
      "anonymous": false,
      "inputs": [
        {
          "indexed": true,
          "internalType": "address",
          "name": "previousOwner",
          "type": "address"
        },
        {
          "indexed": true,
          "internalType": "address",
          "name": "newOwner",
          "type": "address"
        }
      ],
      "name": "OwnershipTransferred",
      "type": "event"
    },
    {
      "inputs": [
        {
          "internalType": "address",
          "name": "_user",
          "type": "address"
        },
        {
          "internalType": "uint256",
          "name": "_amount",
          "type": "uint256"
        }
      ],
      "name": "createDebt",
      "outputs": [],
      "stateMutability": "nonpayable",
      "type": "function"
    },
    {
      "inputs": [
        {
          "internalType": "address",
          "name": "_user",
          "type": "address"
        }
      ],
      "name": "getDebt",
      "outputs": [
        {
          "internalType": "uint256",
          "name": "",
          "type": "uint256"
        }
      ],
      "stateMutability": "view",
      "type": "function"
    },
    {
      "inputs": [],
      "name": "owner",
      "outputs": [
        {
          "internalType": "address",
          "name": "",
          "type": "address"
        }
      ],
      "stateMutability": "view",
      "type": "function"
    },
    {
      "inputs": [],
      "name": "renounceOwnership",
      "outputs": [],
      "stateMutability": "nonpayable",
      "type": "function"
    },
    {
      "inputs": [
        {
          "internalType": "address",
          "name": "_user",
          "type": "address"
        },
        {
          "internalType": "uint256",
          "name": "_amount",
          "type": "uint256"
        }
      ],
      "name": "repay",
      "outputs": [],
      "stateMutability": "nonpayable",
      "type": "function"
    },
    {
      "inputs": [],
      "name": "s_bnplRouter",
      "outputs": [
        {
          "internalType": "address",
          "name": "",
          "type": "address"
        }
      ],
      "stateMutability": "view",
      "type": "function"
    },
    {
      "inputs": [],
      "name": "s_masterReceiver",
      "outputs": [
        {
          "internalType": "address",
          "name": "",
          "type": "address"
        }
      ],
      "stateMutability": "view",
      "type": "function"
    },
    {
      "inputs": [
        {
          "internalType": "address",
          "name": "",
          "type": "address"
        }
      ],
      "name": "s_userDebt",
      "outputs": [
        {
          "internalType": "uint256",
          "name": "",
          "type": "uint256"
        }
      ],
      "stateMutability": "view",
      "type": "function"
    },
    {
      "inputs": [
        {
          "internalType": "address",
          "name": "_router",
          "type": "address"
        }
      ],
      "name": "setAuthorizedContracts",
      "outputs": [],
      "stateMutability": "nonpayable",
      "type": "function"
    },
    {
      "inputs": [
        {
          "internalType": "address",
          "name": "newOwner",
          "type": "address"
        }
      ],
      "name": "transferOwnership",
      "outputs": [],
      "stateMutability": "nonpayable",
      "type": "function"
    }
  ],
  "bytecode": "0x608060405234801561001057600080fd5b5033600073ffffffffffffffffffffffffffffffffffffffff168173ffffffffffffffffffffffffffffffffffffffff16036100845760006040517f1e4fbdf700000000000000000000000000000000000000000000000000000000815260040161007b919061019e565b60405180910390fd5b6100938161009960201b60201c565b506101b9565b60008060009054906101000a900473ffffffffffffffffffffffffffffffffffffffff169050816000806101000a81548173ffffffffffffffffffffffffffffffffffffffff021916908373ffffffffffffffffffffffffffffffffffffffff1602179055508173ffffffffffffffffffffffffffffffffffffffff168173ffffffffffffffffffffffffffffffffffffffff167f8be0079c531659141344cd1fd0a4f28419497f9722a3daafe3b4186f6b6457e060405160405180910390a35050565b600073ffffffffffffffffffffffffffffffffffffffff82169050919050565b60006101888261015d565b9050919050565b6101988161017d565b82525050565b60006020820190506101b3600083018461018f565b92915050565b610b06806101c86000396000f3fe608060405234801561001057600080fd5b506004361061009e5760003560e01c80639a78e72e116100665780639a78e72e14610121578063a443ef0914610151578063b93f61f81461016d578063e395f3c51461019d578063f2fde38b146101bb5761009e565b806322867d78146100a35780633ff5fe17146100bf5780636ac94082146100dd578063715018a6146100f95780638da5cb5b14610103575b600080fd5b6100bd60048036038101906100b891906108fb565b6101d7565b005b6100c76103de565b6040516100d4919061094a565b60405180910390f35b6100f760048036038101906100f29190610965565b610404565b005b610101610450565b005b61010b610464565b604051610118919061094a565b60405180910390f35b61013b60048036038101906101369190610965565b61048d565b60405161014891906109a1565b60405180910390f35b61016b600480360381019061016691906108fb565b6104d6565b005b61018760048036038101906101829190610965565b61064b565b60405161019491906109a1565b60405180910390f35b6101a5610663565b6040516101b2919061094a565b60405180910390f35b6101d560048036038101906101d09190610965565b610689565b005b600260009054906101000a900473ffffffffffffffffffffffffffffffffffffffff1673ffffffffffffffffffffffffffffffffffffffff163373ffffffffffffffffffffffffffffffffffffffff1614806102655750610236610464565b73ffffffffffffffffffffffffffffffffffffffff163373ffffffffffffffffffffffffffffffffffffffff16145b6102a4576040517f08c379a000000000000000000000000000000000000000000000000000000000815260040161029b90610a19565b60405180910390fd5b80600160008473ffffffffffffffffffffffffffffffffffffffff1673ffffffffffffffffffffffffffffffffffffffff168152602001908152602001600020541015610335576000600160008473ffffffffffffffffffffffffffffffffffffffff1673ffffffffffffffffffffffffffffffffffffffff1681526020019081526020016000208190555061038c565b80600160008473ffffffffffffffffffffffffffffffffffffffff1673ffffffffffffffffffffffffffffffffffffffff16815260200190815260200160002060008282546103849190610a68565b925050819055505b8173ffffffffffffffffffffffffffffffffffffffff167fe8b606ac1e5df7657db58d297ca8f41c090fc94c5fd2d6958f043e41736e9fa6826040516103d291906109a1565b60405180910390a25050565b600260009054906101000a900473ffffffffffffffffffffffffffffffffffffffff1681565b61040c61070f565b80600260006101000a81548173ffffffffffffffffffffffffffffffffffffffff021916908373ffffffffffffffffffffffffffffffffffffffff16021790555050565b61045861070f565b6104626000610796565b565b60008060009054906101000a900473ffffffffffffffffffffffffffffffffffffffff16905090565b6000600160008373ffffffffffffffffffffffffffffffffffffffff1673ffffffffffffffffffffffffffffffffffffffff168152602001908152602001600020549050919050565b600260009054906101000a900473ffffffffffffffffffffffffffffffffffffffff1673ffffffffffffffffffffffffffffffffffffffff163373ffffffffffffffffffffffffffffffffffffffff1614806105645750610535610464565b73ffffffffffffffffffffffffffffffffffffffff163373ffffffffffffffffffffffffffffffffffffffff16145b6105a3576040517f08c379a000000000000000000000000000000000000000000000000000000000815260040161059a90610a19565b60405180910390fd5b80600160008473ffffffffffffffffffffffffffffffffffffffff1673ffffffffffffffffffffffffffffffffffffffff16815260200190815260200160002060008282546105f29190610a9c565b925050819055508173ffffffffffffffffffffffffffffffffffffffff167f55827c52ec343fe9036e3983b9045a372fd2d3e00d7a572c6fda56f24b2c9fdc8260405161063f91906109a1565b60405180910390a25050565b60016020528060005260406000206000915090505481565b600360009054906101000a900473ffffffffffffffffffffffffffffffffffffffff1681565b61069161070f565b600073ffffffffffffffffffffffffffffffffffffffff168173ffffffffffffffffffffffffffffffffffffffff16036107035760006040517f1e4fbdf70000000000000000000000000000000000000000000000000000000081526004016106fa919061094a565b60405180910390fd5b61070c81610796565b50565b61071761085a565b73ffffffffffffffffffffffffffffffffffffffff16610735610464565b73ffffffffffffffffffffffffffffffffffffffff16146107945761075861085a565b6040517f118cdaa700000000000000000000000000000000000000000000000000000000815260040161078b919061094a565b60405180910390fd5b565b60008060009054906101000a900473ffffffffffffffffffffffffffffffffffffffff169050816000806101000a81548173ffffffffffffffffffffffffffffffffffffffff021916908373ffffffffffffffffffffffffffffffffffffffff1602179055508173ffffffffffffffffffffffffffffffffffffffff168173ffffffffffffffffffffffffffffffffffffffff167f8be0079c531659141344cd1fd0a4f28419497f9722a3daafe3b4186f6b6457e060405160405180910390a35050565b600033905090565b600080fd5b600073ffffffffffffffffffffffffffffffffffffffff82169050919050565b600061089282610867565b9050919050565b6108a281610887565b81146108ad57600080fd5b50565b6000813590506108bf81610899565b92915050565b6000819050919050565b6108d8816108c5565b81146108e357600080fd5b50565b6000813590506108f5816108cf565b92915050565b6000806040838503121561091257610911610862565b5b6000610920858286016108b0565b9250506020610931858286016108e6565b9150509250929050565b61094481610887565b82525050565b600060208201905061095f600083018461093b565b92915050565b60006020828403121561097b5761097a610862565b5b6000610989848285016108b0565b91505092915050565b61099b816108c5565b82525050565b60006020820190506109b66000830184610992565b92915050565b600082825260208201905092915050565b7f556e617574686f72697a65640000000000000000000000000000000000000000600082015250565b6000610a03600c836109bc565b9150610a0e826109cd565b602082019050919050565b60006020820190508181036000830152610a32816109f6565b9050919050565b7f4e487b7100000000000000000000000000000000000000000000000000000000600052601160045260246000fd5b6000610a73826108c5565b9150610a7e836108c5565b9250828203905081811115610a9657610a95610a39565b5b92915050565b6000610aa7826108c5565b9150610ab2836108c5565b9250828201905080821115610aca57610ac9610a39565b5b9291505056fea26469706673582212201b127c0863fb09883914080c208de5580eadda8ecdaf1e7f518373b5c826389a64736f6c63430008140033",
  "linkReferences": {},
  "deployedLinkReferences": {}
}