{
  "_format": "hh-sol-artifact-1",
  "contractName": "LiquidationController",
  "sourceName": "contracts/LiquidationController.sol",
  "abi": [
    {
      "inputs": [
        {
          "internalType": "address",
          "name": "_creditManager",
          "type": "address"
        },
        {
          "internalType": "address",
          "name": "_debtManager",
          "type": "address"
        },
        {
          "internalType": "address",
          "name": "_router",
          "type": "address"
        }
      ],
      "stateMutability": "nonpayable",
      "type": "constructor"
    },
    {
      "inputs": [
        {
          "internalType": "address",
          "name": "owner",
          "type": "address"
        }
      ],
      "name": "OwnableInvalidOwner",
      "type": "error"
    },
    {
      "inputs": [
        {
          "internalType": "address",
          "name": "account",
          "type": "address"
        }
      ],
      "name": "OwnableUnauthorizedAccount",
      "type": "error"
    },
    {
      "anonymous": false,
      "inputs": [
        {
          "indexed": true,
          "internalType": "address",
          "name": "user",
          "type": "address"
        },
        {
          "indexed": true,
          "internalType": "uint64",
          "name": "chainId",
          "type": "uint64"
        },
        {
          "indexed": false,
          "internalType": "address",
          "name": "token",
          "type": "address"
        }
      ],
      "name": "LiquidationTriggered",
      "type": "event"
    },
    {
      "anonymous": false,
      "inputs": [
        {
          "indexed": true,
          "internalType": "address",
          "name": "previousOwner",
          "type": "address"
        },
        {
          "indexed": true,
          "internalType": "address",
          "name": "newOwner",
          "type": "address"
        }
      ],
      "name": "OwnershipTransferred",
      "type": "event"
    },
    {
      "inputs": [],
      "name": "LIQUIDATION_THRESHOLD",
      "outputs": [
        {
          "internalType": "uint256",
          "name": "",
          "type": "uint256"
        }
      ],
      "stateMutability": "view",
      "type": "function"
    },
    {
      "inputs": [],
      "name": "MAX_BASIS_POINTS",
      "outputs": [
        {
          "internalType": "uint256",
          "name": "",
          "type": "uint256"
        }
      ],
      "stateMutability": "view",
      "type": "function"
    },
    {
      "inputs": [],
      "name": "MSG_LIQUIDATE",
      "outputs": [
        {
          "internalType": "uint8",
          "name": "",
          "type": "uint8"
        }
      ],
      "stateMutability": "view",
      "type": "function"
    },
    {
      "inputs": [
        {
          "internalType": "address",
          "name": "_user",
          "type": "address"
        }
      ],
      "name": "checkHealth",
      "outputs": [
        {
          "internalType": "bool",
          "name": "healthy",
          "type": "bool"
        }
      ],
      "stateMutability": "view",
      "type": "function"
    },
    {
      "inputs": [],
      "name": "i_creditManager",
      "outputs": [
        {
          "internalType": "contract CreditManager",
          "name": "",
          "type": "address"
        }
      ],
      "stateMutability": "view",
      "type": "function"
    },
    {
      "inputs": [],
      "name": "i_debtManager",
      "outputs": [
        {
          "internalType": "contract DebtManager",
          "name": "",
          "type": "address"
        }
      ],
      "stateMutability": "view",
      "type": "function"
    },
    {
      "inputs": [],
      "name": "i_router",
      "outputs": [
        {
          "internalType": "contract IRouterClient",
          "name": "",
          "type": "address"
        }
      ],
      "stateMutability": "view",
      "type": "function"
    },
    {
      "inputs": [],
      "name": "owner",
      "outputs": [
        {
          "internalType": "address",
          "name": "",
          "type": "address"
        }
      ],
      "stateMutability": "view",
      "type": "function"
    },
    {
      "inputs": [],
      "name": "renounceOwnership",
      "outputs": [],
      "stateMutability": "nonpayable",
      "type": "function"
    },
    {
      "inputs": [
        {
          "internalType": "address",
          "name": "newOwner",
          "type": "address"
        }
      ],
      "name": "transferOwnership",
      "outputs": [],
      "stateMutability": "nonpayable",
      "type": "function"
    },
    {
      "inputs": [
        {
          "internalType": "address",
          "name": "_user",
          "type": "address"
        },
        {
          "internalType": "uint64",
          "name": "_chainId",
          "type": "uint64"
        },
        {
          "internalType": "address",
          "name": "_token",
          "type": "address"
        },
        {
          "internalType": "address",
          "name": "_satelliteVault",
          "type": "address"
        }
      ],
      "name": "triggerLiquidation",
      "outputs": [],
      "stateMutability": "payable",
      "type": "function"
    },
    {
      "inputs": [
        {
          "internalType": "address",
          "name": "_user",
          "type": "address"
        },
        {
          "internalType": "uint64",
          "name": "_chainId",
          "type": "uint64"
        },
        {
          "internalType": "address",
          "name": "_token",
          "type": "address"
        }
      ],
      "name": "triggerLiquidation",
      "outputs": [],
      "stateMutability": "nonpayable",
      "type": "function"
    }
  ],
  "bytecode": "0x60806040523480156200001157600080fd5b5060405162001916380380620019168339818101604052810190620000379190620002b9565b33600073ffffffffffffffffffffffffffffffffffffffff168173ffffffffffffffffffffffffffffffffffffffff1603620000ad5760006040517f1e4fbdf7000000000000000000000000000000000000000000000000000000008152600401620000a4919062000326565b60405180910390fd5b620000be816200018b60201b60201c565b5082600160006101000a81548173ffffffffffffffffffffffffffffffffffffffff021916908373ffffffffffffffffffffffffffffffffffffffff16021790555081600260006101000a81548173ffffffffffffffffffffffffffffffffffffffff021916908373ffffffffffffffffffffffffffffffffffffffff16021790555080600360006101000a81548173ffffffffffffffffffffffffffffffffffffffff021916908373ffffffffffffffffffffffffffffffffffffffff16021790555050505062000343565b60008060009054906101000a900473ffffffffffffffffffffffffffffffffffffffff169050816000806101000a81548173ffffffffffffffffffffffffffffffffffffffff021916908373ffffffffffffffffffffffffffffffffffffffff1602179055508173ffffffffffffffffffffffffffffffffffffffff168173ffffffffffffffffffffffffffffffffffffffff167f8be0079c531659141344cd1fd0a4f28419497f9722a3daafe3b4186f6b6457e060405160405180910390a35050565b600080fd5b600073ffffffffffffffffffffffffffffffffffffffff82169050919050565b6000620002818262000254565b9050919050565b620002938162000274565b81146200029f57600080fd5b50565b600081519050620002b38162000288565b92915050565b600080600060608486031215620002d557620002d46200024f565b5b6000620002e586828701620002a2565b9350506020620002f886828701620002a2565b92505060406200030b86828701620002a2565b9150509250925092565b620003208162000274565b82525050565b60006020820190506200033d600083018462000315565b92915050565b6115c380620003536000396000f3fe6080604052600436106100a75760003560e01c806390a8ae9b1161006457806390a8ae9b1461018b578063af81c352146101b6578063b773ad9c146101e1578063f19507af1461020a578063f2fde38b14610247578063f4ea93d814610270576100a7565b80630250ccb0146100ac5780631bb9f030146100d757806351a958fb14610102578063581bdd161461011e578063715018a6146101495780638da5cb5b14610160575b600080fd5b3480156100b857600080fd5b506100c161029b565b6040516100ce9190610c7f565b60405180910390f35b3480156100e357600080fd5b506100ec6102a0565b6040516100f99190610d19565b60405180910390f35b61011c60048036038101906101179190610db7565b6102c6565b005b34801561012a57600080fd5b50610133610617565b6040516101409190610e3f565b60405180910390f35b34801561015557600080fd5b5061015e61063d565b005b34801561016c57600080fd5b50610175610651565b6040516101829190610e69565b60405180910390f35b34801561019757600080fd5b506101a061067a565b6040516101ad9190610e9d565b60405180910390f35b3480156101c257600080fd5b506101cb610680565b6040516101d89190610ed9565b60405180910390f35b3480156101ed57600080fd5b5061020860048036038101906102039190610ef4565b6106a6565b005b34801561021657600080fd5b50610231600480360381019061022c9190610f47565b610848565b60405161023e9190610f8f565b60405180910390f35b34801561025357600080fd5b5061026e60048036038101906102699190610f47565b6109d5565b005b34801561027c57600080fd5b50610285610a5b565b6040516102929190610e9d565b60405180910390f35b600481565b600260009054906101000a900473ffffffffffffffffffffffffffffffffffffffff1681565b6102cf84610848565b1561030f576040517f08c379a000000000000000000000000000000000000000000000000000000000815260040161030690611007565b60405180910390fd5b60007fffffffffffffffffffffffffffffffffffffffffffffffffffffffffffffffff90506000600486858460405160200161034e9493929190611027565b604051602081830303815290604052905060006040518060a001604052808560405160200161037d9190610e69565b6040516020818303038152906040528152602001838152602001600067ffffffffffffffff8111156103b2576103b161106c565b5b6040519080825280602002602001820160405280156103eb57816020015b6103d8610c33565b8152602001906001900390816103d05790505b508152602001600073ffffffffffffffffffffffffffffffffffffffff168152602001610428604051806020016040528062030d40815250610a61565b81525090506000600360009054906101000a900473ffffffffffffffffffffffffffffffffffffffff1673ffffffffffffffffffffffffffffffffffffffff166320487ded88846040518363ffffffff1660e01b815260040161048c9291906112c1565b602060405180830381865afa1580156104a9573d6000803e3d6000fd5b505050506040513d601f19601f820116820180604052508101906104cd919061131d565b905080341015610512576040517f08c379a000000000000000000000000000000000000000000000000000000000815260040161050990611396565b60405180910390fd5b600360009054906101000a900473ffffffffffffffffffffffffffffffffffffffff1673ffffffffffffffffffffffffffffffffffffffff166396f4e9f98289856040518463ffffffff1660e01b81526004016105709291906112c1565b60206040518083038185885af115801561058e573d6000803e3d6000fd5b50505050506040513d601f19601f820116820180604052508101906105b391906113ec565b508667ffffffffffffffff168873ffffffffffffffffffffffffffffffffffffffff167f694a69e5672ec9cb9ab8b9d2b313f5e4b623cccd1680ba87ffac0b63a6139cfe886040516106059190610e69565b60405180910390a35050505050505050565b600360009054906101000a900473ffffffffffffffffffffffffffffffffffffffff1681565b610645610ae0565b61064f6000610b67565b565b60008060009054906101000a900473ffffffffffffffffffffffffffffffffffffffff16905090565b61213481565b600160009054906101000a900473ffffffffffffffffffffffffffffffffffffffff1681565b6106af83610848565b156106ef576040517f08c379a00000000000000000000000000000000000000000000000000000000081526004016106e690611007565b60405180910390fd5b60007fffffffffffffffffffffffffffffffffffffffffffffffffffffffffffffffff90506000600485848460405160200161072e9493929190611027565b604051602081830303815290604052905060006040518060a001604052803360405160200161075d9190610e69565b6040516020818303038152906040528152602001838152602001600067ffffffffffffffff8111156107925761079161106c565b5b6040519080825280602002602001820160405280156107cb57816020015b6107b8610c33565b8152602001906001900390816107b05790505b508152602001600073ffffffffffffffffffffffffffffffffffffffff168152602001610808604051806020016040528062030d40815250610a61565b81525090506040517f08c379a000000000000000000000000000000000000000000000000000000000815260040161083f90611465565b60405180910390fd5b600080600160009054906101000a900473ffffffffffffffffffffffffffffffffffffffff1673ffffffffffffffffffffffffffffffffffffffff16639f55682e846040518263ffffffff1660e01b81526004016108a69190610e69565b602060405180830381865afa1580156108c3573d6000803e3d6000fd5b505050506040513d601f19601f820116820180604052508101906108e7919061131d565b90506000600260009054906101000a900473ffffffffffffffffffffffffffffffffffffffff1673ffffffffffffffffffffffffffffffffffffffff16639a78e72e856040518263ffffffff1660e01b81526004016109469190610e69565b602060405180830381865afa158015610963573d6000803e3d6000fd5b505050506040513d601f19601f82011682018060405250810190610987919061131d565b90506000810361099c576001925050506109d0565b80612710612134846109ae91906114b4565b6109b89190611525565b10156109c9576000925050506109d0565b6001925050505b919050565b6109dd610ae0565b600073ffffffffffffffffffffffffffffffffffffffff168173ffffffffffffffffffffffffffffffffffffffff1603610a4f5760006040517f1e4fbdf7000000000000000000000000000000000000000000000000000000008152600401610a469190610e69565b60405180910390fd5b610a5881610b67565b50565b61271081565b60606397a657c960e01b82604051602401610a7c9190611572565b604051602081830303815290604052907bffffffffffffffffffffffffffffffffffffffffffffffffffffffff19166020820180517bffffffffffffffffffffffffffffffffffffffffffffffffffffffff83818316178352505050509050919050565b610ae8610c2b565b73ffffffffffffffffffffffffffffffffffffffff16610b06610651565b73ffffffffffffffffffffffffffffffffffffffff1614610b6557610b29610c2b565b6040517f118cdaa7000000000000000000000000000000000000000000000000000000008152600401610b5c9190610e69565b60405180910390fd5b565b60008060009054906101000a900473ffffffffffffffffffffffffffffffffffffffff169050816000806101000a81548173ffffffffffffffffffffffffffffffffffffffff021916908373ffffffffffffffffffffffffffffffffffffffff1602179055508173ffffffffffffffffffffffffffffffffffffffff168173ffffffffffffffffffffffffffffffffffffffff167f8be0079c531659141344cd1fd0a4f28419497f9722a3daafe3b4186f6b6457e060405160405180910390a35050565b600033905090565b6040518060400160405280600073ffffffffffffffffffffffffffffffffffffffff168152602001600081525090565b600060ff82169050919050565b610c7981610c63565b82525050565b6000602082019050610c946000830184610c70565b92915050565b600073ffffffffffffffffffffffffffffffffffffffff82169050919050565b6000819050919050565b6000610cdf610cda610cd584610c9a565b610cba565b610c9a565b9050919050565b6000610cf182610cc4565b9050919050565b6000610d0382610ce6565b9050919050565b610d1381610cf8565b82525050565b6000602082019050610d2e6000830184610d0a565b92915050565b600080fd5b6000610d4482610c9a565b9050919050565b610d5481610d39565b8114610d5f57600080fd5b50565b600081359050610d7181610d4b565b92915050565b600067ffffffffffffffff82169050919050565b610d9481610d77565b8114610d9f57600080fd5b50565b600081359050610db181610d8b565b92915050565b60008060008060808587031215610dd157610dd0610d34565b5b6000610ddf87828801610d62565b9450506020610df087828801610da2565b9350506040610e0187828801610d62565b9250506060610e1287828801610d62565b91505092959194509250565b6000610e2982610ce6565b9050919050565b610e3981610e1e565b82525050565b6000602082019050610e546000830184610e30565b92915050565b610e6381610d39565b82525050565b6000602082019050610e7e6000830184610e5a565b92915050565b6000819050919050565b610e9781610e84565b82525050565b6000602082019050610eb26000830184610e8e565b92915050565b6000610ec382610ce6565b9050919050565b610ed381610eb8565b82525050565b6000602082019050610eee6000830184610eca565b92915050565b600080600060608486031215610f0d57610f0c610d34565b5b6000610f1b86828701610d62565b9350506020610f2c86828701610da2565b9250506040610f3d86828701610d62565b9150509250925092565b600060208284031215610f5d57610f5c610d34565b5b6000610f6b84828501610d62565b91505092915050565b60008115159050919050565b610f8981610f74565b82525050565b6000602082019050610fa46000830184610f80565b92915050565b600082825260208201905092915050565b7f55736572206973206865616c7468790000000000000000000000000000000000600082015250565b6000610ff1600f83610faa565b9150610ffc82610fbb565b602082019050919050565b6000602082019050818103600083015261102081610fe4565b9050919050565b600060808201905061103c6000830187610c70565b6110496020830186610e5a565b6110566040830185610e5a565b6110636060830184610e8e565b95945050505050565b7f4e487b7100000000000000000000000000000000000000000000000000000000600052604160045260246000fd5b6110a481610d77565b82525050565b600081519050919050565b600082825260208201905092915050565b60005b838110156110e45780820151818401526020810190506110c9565b60008484015250505050565b6000601f19601f8301169050919050565b600061110c826110aa565b61111681856110b5565b93506111268185602086016110c6565b61112f816110f0565b840191505092915050565b600081519050919050565b600082825260208201905092915050565b6000819050602082019050919050565b61116f81610d39565b82525050565b61117e81610e84565b82525050565b60408201600082015161119a6000850182611166565b5060208201516111ad6020850182611175565b50505050565b60006111bf8383611184565b60408301905092915050565b6000602082019050919050565b60006111e38261113a565b6111ed8185611145565b93506111f883611156565b8060005b8381101561122957815161121088826111b3565b975061121b836111cb565b9250506001810190506111fc565b5085935050505092915050565b600060a08301600083015184820360008601526112538282611101565b9150506020830151848203602086015261126d8282611101565b9150506040830151848203604086015261128782826111d8565b915050606083015161129c6060860182611166565b50608083015184820360808601526112b48282611101565b9150508091505092915050565b60006040820190506112d6600083018561109b565b81810360208301526112e88184611236565b90509392505050565b6112fa81610e84565b811461130557600080fd5b50565b600081519050611317816112f1565b92915050565b60006020828403121561133357611332610d34565b5b600061134184828501611308565b91505092915050565b7f496e73756666696369656e742066656573000000000000000000000000000000600082015250565b6000611380601183610faa565b915061138b8261134a565b602082019050919050565b600060208201905081810360008301526113af81611373565b9050919050565b6000819050919050565b6113c9816113b6565b81146113d457600080fd5b50565b6000815190506113e6816113c0565b92915050565b60006020828403121561140257611401610d34565b5b6000611410848285016113d7565b91505092915050565b7f536174656c6c697465207661756c742061646472657373207265717569726564600082015250565b600061144f602083610faa565b915061145a82611419565b602082019050919050565b6000602082019050818103600083015261147e81611442565b9050919050565b7f4e487b7100000000000000000000000000000000000000000000000000000000600052601160045260246000fd5b60006114bf82610e84565b91506114ca83610e84565b92508282026114d881610e84565b915082820484148315176114ef576114ee611485565b5b5092915050565b7f4e487b7100000000000000000000000000000000000000000000000000000000600052601260045260246000fd5b600061153082610e84565b915061153b83610e84565b92508261154b5761154a6114f6565b5b828204905092915050565b60208201600082015161156c6000850182611175565b50505050565b60006020820190506115876000830184611556565b9291505056fea2646970667358221220d0bd0788f5c5608f5603f0e07b7d4875359d152aab384d2f072a3b1a4b7b56ed64736f6c63430008140033",
  "linkReferences": {},
  "deployedLinkReferences": {}
}