{
  "_format": "hh-sol-artifact-1",
  "contractName": "CreditManager",
  "sourceName": "contracts/CreditManager.sol",
  "abi": [
    {
      "inputs": [],
      "stateMutability": "nonpayable",
      "type": "constructor"
    },
    {
      "inputs": [
        {
          "internalType": "address",
          "name": "owner",
          "type": "address"
        }
      ],
      "name": "OwnableInvalidOwner",
      "type": "error"
    },
    {
      "inputs": [
        {
          "internalType": "address",
          "name": "account",
          "type": "address"
        }
      ],
      "name": "OwnableUnauthorizedAccount",
      "type": "error"
    },
    {
      "anonymous": false,
      "inputs": [
        {
          "indexed": true,
          "internalType": "address",
          "name": "user",
          "type": "address"
        },
        {
          "indexed": true,
          "internalType": "uint64",
          "name": "chainId",
          "type": "uint64"
        },
        {
          "indexed": false,
          "internalType": "address",
          "name": "token",
          "type": "address"
        },
        {
          "indexed": false,
          "internalType": "uint256",
          "name": "newUsdValue",
          "type": "uint256"
        }
      ],
      "name": "CollateralUpdated",
      "type": "event"
    },
    {
      "anonymous": false,
      "inputs": [
        {
          "indexed": true,
          "internalType": "address",
          "name": "user",
          "type": "address"
        },
        {
          "indexed": false,
          "internalType": "string",
          "name": "cid",
          "type": "string"
        }
      ],
      "name": "KYCSubmitted",
      "type": "event"
    },
    {
      "anonymous": false,
      "inputs": [
        {
          "indexed": true,
          "internalType": "address",
          "name": "previousOwner",
          "type": "address"
        },
        {
          "indexed": true,
          "internalType": "address",
          "name": "newOwner",
          "type": "address"
        }
      ],
      "name": "OwnershipTransferred",
      "type": "event"
    },
    {
      "anonymous": false,
      "inputs": [
        {
          "indexed": true,
          "internalType": "address",
          "name": "user",
          "type": "address"
        }
      ],
      "name": "UserVerified",
      "type": "event"
    },
    {
      "inputs": [],
      "name": "LTV_BASIS_POINTS",
      "outputs": [
        {
          "internalType": "uint256",
          "name": "",
          "type": "uint256"
        }
      ],
      "stateMutability": "view",
      "type": "function"
    },
    {
      "inputs": [],
      "name": "MAX_BASIS_POINTS",
      "outputs": [
        {
          "internalType": "uint256",
          "name": "",
          "type": "uint256"
        }
      ],
      "stateMutability": "view",
      "type": "function"
    },
    {
      "inputs": [
        {
          "internalType": "address",
          "name": "_user",
          "type": "address"
        },
        {
          "internalType": "uint64",
          "name": "_chainId",
          "type": "uint64"
        },
        {
          "internalType": "address",
          "name": "_token",
          "type": "address"
        },
        {
          "internalType": "uint256",
          "name": "_amountUsd",
          "type": "uint256"
        }
      ],
      "name": "addCollateral",
      "outputs": [],
      "stateMutability": "nonpayable",
      "type": "function"
    },
    {
      "inputs": [
        {
          "internalType": "address",
          "name": "_user",
          "type": "address"
        }
      ],
      "name": "getCreditLimit",
      "outputs": [
        {
          "internalType": "uint256",
          "name": "",
          "type": "uint256"
        }
      ],
      "stateMutability": "view",
      "type": "function"
    },
    {
      "inputs": [],
      "name": "owner",
      "outputs": [
        {
          "internalType": "address",
          "name": "",
          "type": "address"
        }
      ],
      "stateMutability": "view",
      "type": "function"
    },
    {
      "inputs": [
        {
          "internalType": "address",
          "name": "_user",
          "type": "address"
        },
        {
          "internalType": "uint64",
          "name": "_chainId",
          "type": "uint64"
        },
        {
          "internalType": "address",
          "name": "_token",
          "type": "address"
        },
        {
          "internalType": "uint256",
          "name": "_amountUsd",
          "type": "uint256"
        }
      ],
      "name": "reduceCollateral",
      "outputs": [],
      "stateMutability": "nonpayable",
      "type": "function"
    },
    {
      "inputs": [],
      "name": "renounceOwnership",
      "outputs": [],
      "stateMutability": "nonpayable",
      "type": "function"
    },
    {
      "inputs": [],
      "name": "s_bnplRouter",
      "outputs": [
        {
          "internalType": "address",
          "name": "",
          "type": "address"
        }
      ],
      "stateMutability": "view",
      "type": "function"
    },
    {
      "inputs": [],
      "name": "s_liquidationController",
      "outputs": [
        {
          "internalType": "address",
          "name": "",
          "type": "address"
        }
      ],
      "stateMutability": "view",
      "type": "function"
    },
    {
      "inputs": [],
      "name": "s_masterReceiver",
      "outputs": [
        {
          "internalType": "address",
          "name": "",
          "type": "address"
        }
      ],
      "stateMutability": "view",
      "type": "function"
    },
    {
      "inputs": [
        {
          "internalType": "address",
          "name": "",
          "type": "address"
        },
        {
          "internalType": "uint64",
          "name": "",
          "type": "uint64"
        },
        {
          "internalType": "address",
          "name": "",
          "type": "address"
        }
      ],
      "name": "s_userCollateralValue",
      "outputs": [
        {
          "internalType": "uint256",
          "name": "",
          "type": "uint256"
        }
      ],
      "stateMutability": "view",
      "type": "function"
    },
    {
      "inputs": [
        {
          "internalType": "address",
          "name": "",
          "type": "address"
        }
      ],
      "name": "s_userTotalCollateralUSD",
      "outputs": [
        {
          "internalType": "uint256",
          "name": "",
          "type": "uint256"
        }
      ],
      "stateMutability": "view",
      "type": "function"
    },
    {
      "inputs": [
        {
          "internalType": "address",
          "name": "",
          "type": "address"
        }
      ],
      "name": "s_userVerified",
      "outputs": [
        {
          "internalType": "bool",
          "name": "",
          "type": "bool"
        }
      ],
      "stateMutability": "view",
      "type": "function"
    },
    {
      "inputs": [
        {
          "internalType": "address",
          "name": "_receiver",
          "type": "address"
        },
        {
          "internalType": "address",
          "name": "_router",
          "type": "address"
        },
        {
          "internalType": "address",
          "name": "_liquidator",
          "type": "address"
        }
      ],
      "name": "setAuthorizedContracts",
      "outputs": [],
      "stateMutability": "nonpayable",
      "type": "function"
    },
    {
      "inputs": [
        {
          "internalType": "string",
          "name": "_cid",
          "type": "string"
        }
      ],
      "name": "submitKYC",
      "outputs": [],
      "stateMutability": "nonpayable",
      "type": "function"
    },
    {
      "inputs": [
        {
          "internalType": "address",
          "name": "newOwner",
          "type": "address"
        }
      ],
      "name": "transferOwnership",
      "outputs": [],
      "stateMutability": "nonpayable",
      "type": "function"
    },
    {
      "inputs": [
        {
          "internalType": "address",
          "name": "_user",
          "type": "address"
        },
        {
          "internalType": "uint64",
          "name": "_chainId",
          "type": "uint64"
        },
        {
          "internalType": "address",
          "name": "_token",
          "type": "address"
        },
        {
          "internalType": "uint256",
          "name": "_newUsdValue",
          "type": "uint256"
        }
      ],
      "name": "updateCollateral",
      "outputs": [],
      "stateMutability": "nonpayable",
      "type": "function"
    },
    {
      "inputs": [
        {
          "internalType": "address",
          "name": "_user",
          "type": "address"
        }
      ],
      "name": "verifyUser",
      "outputs": [],
      "stateMutability": "nonpayable",
      "type": "function"
    }
  ],
  "bytecode": "0x60806040523480156200001157600080fd5b5033600073ffffffffffffffffffffffffffffffffffffffff168173ffffffffffffffffffffffffffffffffffffffff1603620000885760006040517f1e4fbdf70000000000000000000000000000000000000000000000000000000081526004016200007f9190620001a9565b60405180910390fd5b6200009981620000a060201b60201c565b50620001c6565b60008060009054906101000a900473ffffffffffffffffffffffffffffffffffffffff169050816000806101000a81548173ffffffffffffffffffffffffffffffffffffffff021916908373ffffffffffffffffffffffffffffffffffffffff1602179055508173ffffffffffffffffffffffffffffffffffffffff168173ffffffffffffffffffffffffffffffffffffffff167f8be0079c531659141344cd1fd0a4f28419497f9722a3daafe3b4186f6b6457e060405160405180910390a35050565b600073ffffffffffffffffffffffffffffffffffffffff82169050919050565b6000620001918262000164565b9050919050565b620001a38162000184565b82525050565b6000602082019050620001c0600083018462000198565b92915050565b611c2580620001d66000396000f3fe608060405234801561001057600080fd5b50600436106101165760003560e01c80638da5cb5b116100a2578063e395f3c511610071578063e395f3c5146102cb578063f2fde38b146102e9578063f48418fe14610305578063f4ea93d814610321578063ff6f1ca11461033f57610116565b80638da5cb5b1461024357806390a9ad72146102615780639f55682e1461027f578063da47a89f146102af57610116565b8063414d7527116100e9578063414d7527146101b5578063453ae3cf146101d15780634d813120146101ed5780635dbdfb5714610209578063715018a61461023957610116565b8063164502ac1461011b57806328b285861461014b5780632c333e25146101675780633ff5fe1714610197575b600080fd5b6101356004803603810190610130919061158b565b61035d565b60405161014291906115f7565b60405180910390f35b6101656004803603810190610160919061163e565b61038f565b005b610181600480360381019061017c91906116a5565b61078a565b60405161018e91906115f7565b60405180910390f35b61019f610848565b6040516101ac91906116e1565b60405180910390f35b6101cf60048036038101906101ca91906116fc565b61086e565b005b6101eb60048036038101906101e69190611895565b61093e565b005b610207600480360381019061020291906116a5565b61098f565b005b610223600480360381019061021e91906116a5565b610a35565b60405161023091906118f9565b60405180910390f35b610241610a55565b005b61024b610a69565b60405161025891906116e1565b60405180910390f35b610269610a92565b60405161027691906116e1565b60405180910390f35b610299600480360381019061029491906116a5565b610ab8565b6040516102a691906115f7565b60405180910390f35b6102c960048036038101906102c4919061163e565b610ad0565b005b6102d3610e5d565b6040516102e091906116e1565b60405180910390f35b61030360048036038101906102fe91906116a5565b610e83565b005b61031f600480360381019061031a919061163e565b610f09565b005b61032961137a565b60405161033691906115f7565b60405180910390f35b610347611380565b60405161035491906115f7565b60405180910390f35b600160205282600052604060002060205281600052604060002060205280600052604060002060009250925050505481565b600360009054906101000a900473ffffffffffffffffffffffffffffffffffffffff1673ffffffffffffffffffffffffffffffffffffffff163373ffffffffffffffffffffffffffffffffffffffff1614806104385750600460009054906101000a900473ffffffffffffffffffffffffffffffffffffffff1673ffffffffffffffffffffffffffffffffffffffff163373ffffffffffffffffffffffffffffffffffffffff16145b806104905750600560009054906101000a900473ffffffffffffffffffffffffffffffffffffffff1673ffffffffffffffffffffffffffffffffffffffff163373ffffffffffffffffffffffffffffffffffffffff16145b806104cd575061049e610a69565b73ffffffffffffffffffffffffffffffffffffffff163373ffffffffffffffffffffffffffffffffffffffff16145b61050c576040517f08c379a000000000000000000000000000000000000000000000000000000000815260040161050390611971565b60405180910390fd5b6000600160008673ffffffffffffffffffffffffffffffffffffffff1673ffffffffffffffffffffffffffffffffffffffff16815260200190815260200160002060008567ffffffffffffffff1667ffffffffffffffff16815260200190815260200160002060008473ffffffffffffffffffffffffffffffffffffffff1673ffffffffffffffffffffffffffffffffffffffff168152602001908152602001600020549050808211156106205780826105c691906119c0565b600260008773ffffffffffffffffffffffffffffffffffffffff1673ffffffffffffffffffffffffffffffffffffffff168152602001908152602001600020600082825461061491906119f4565b92505081905550610682565b818161062c91906119c0565b600260008773ffffffffffffffffffffffffffffffffffffffff1673ffffffffffffffffffffffffffffffffffffffff168152602001908152602001600020600082825461067a91906119c0565b925050819055505b81600160008773ffffffffffffffffffffffffffffffffffffffff1673ffffffffffffffffffffffffffffffffffffffff16815260200190815260200160002060008667ffffffffffffffff1667ffffffffffffffff16815260200190815260200160002060008573ffffffffffffffffffffffffffffffffffffffff1673ffffffffffffffffffffffffffffffffffffffff168152602001908152602001600020819055508367ffffffffffffffff168573ffffffffffffffffffffffffffffffffffffffff167fe86d75909f254e3d8b1577ae0e284eae7cab0f1b4ef41a3b559b59ae9dba85b7858560405161077b929190611a28565b60405180910390a35050505050565b6000600660008373ffffffffffffffffffffffffffffffffffffffff1673ffffffffffffffffffffffffffffffffffffffff16815260200190815260200160002060009054906101000a900460ff166107e65760009050610843565b612710611d4c600260008573ffffffffffffffffffffffffffffffffffffffff1673ffffffffffffffffffffffffffffffffffffffff168152602001908152602001600020546108369190611a51565b6108409190611ac2565b90505b919050565b600460009054906101000a900473ffffffffffffffffffffffffffffffffffffffff1681565b610876611386565b82600360006101000a81548173ffffffffffffffffffffffffffffffffffffffff021916908373ffffffffffffffffffffffffffffffffffffffff16021790555081600460006101000a81548173ffffffffffffffffffffffffffffffffffffffff021916908373ffffffffffffffffffffffffffffffffffffffff16021790555080600560006101000a81548173ffffffffffffffffffffffffffffffffffffffff021916908373ffffffffffffffffffffffffffffffffffffffff160217905550505050565b3373ffffffffffffffffffffffffffffffffffffffff167fe3f81b273b142548431346476607dda7126d68317c9b8a1bbee298bc274dc5b0826040516109849190611b61565b60405180910390a250565b610997611386565b6001600660008373ffffffffffffffffffffffffffffffffffffffff1673ffffffffffffffffffffffffffffffffffffffff16815260200190815260200160002060006101000a81548160ff0219169083151502179055508073ffffffffffffffffffffffffffffffffffffffff167fa6625d2d26e786e2f473111bea4b2fcdbbf1863d883a2359989ce3a103d2972a60405160405180910390a250565b60066020528060005260406000206000915054906101000a900460ff1681565b610a5d611386565b610a67600061140d565b565b60008060009054906101000a900473ffffffffffffffffffffffffffffffffffffffff16905090565b600560009054906101000a900473ffffffffffffffffffffffffffffffffffffffff1681565b60026020528060005260406000206000915090505481565b600360009054906101000a900473ffffffffffffffffffffffffffffffffffffffff1673ffffffffffffffffffffffffffffffffffffffff163373ffffffffffffffffffffffffffffffffffffffff161480610b795750600460009054906101000a900473ffffffffffffffffffffffffffffffffffffffff1673ffffffffffffffffffffffffffffffffffffffff163373ffffffffffffffffffffffffffffffffffffffff16145b80610bd15750600560009054906101000a900473ffffffffffffffffffffffffffffffffffffffff1673ffffffffffffffffffffffffffffffffffffffff163373ffffffffffffffffffffffffffffffffffffffff16145b80610c0e5750610bdf610a69565b73ffffffffffffffffffffffffffffffffffffffff163373ffffffffffffffffffffffffffffffffffffffff16145b610c4d576040517f08c379a0000000000000000000000000000000000000000000000000000000008152600401610c4490611971565b60405180910390fd5b80600160008673ffffffffffffffffffffffffffffffffffffffff1673ffffffffffffffffffffffffffffffffffffffff16815260200190815260200160002060008567ffffffffffffffff1667ffffffffffffffff16815260200190815260200160002060008473ffffffffffffffffffffffffffffffffffffffff1673ffffffffffffffffffffffffffffffffffffffff1681526020019081526020016000206000828254610cfe91906119f4565b9250508190555080600260008673ffffffffffffffffffffffffffffffffffffffff1673ffffffffffffffffffffffffffffffffffffffff1681526020019081526020016000206000828254610d5491906119f4565b925050819055508267ffffffffffffffff168473ffffffffffffffffffffffffffffffffffffffff167fe86d75909f254e3d8b1577ae0e284eae7cab0f1b4ef41a3b559b59ae9dba85b784600160008973ffffffffffffffffffffffffffffffffffffffff1673ffffffffffffffffffffffffffffffffffffffff16815260200190815260200160002060008867ffffffffffffffff1667ffffffffffffffff16815260200190815260200160002060008773ffffffffffffffffffffffffffffffffffffffff1673ffffffffffffffffffffffffffffffffffffffff16815260200190815260200160002054604051610e4f929190611a28565b60405180910390a350505050565b600360009054906101000a900473ffffffffffffffffffffffffffffffffffffffff1681565b610e8b611386565b600073ffffffffffffffffffffffffffffffffffffffff168173ffffffffffffffffffffffffffffffffffffffff1603610efd5760006040517f1e4fbdf7000000000000000000000000000000000000000000000000000000008152600401610ef491906116e1565b60405180910390fd5b610f068161140d565b50565b600360009054906101000a900473ffffffffffffffffffffffffffffffffffffffff1673ffffffffffffffffffffffffffffffffffffffff163373ffffffffffffffffffffffffffffffffffffffff161480610fb25750600460009054906101000a900473ffffffffffffffffffffffffffffffffffffffff1673ffffffffffffffffffffffffffffffffffffffff163373ffffffffffffffffffffffffffffffffffffffff16145b8061100a5750600560009054906101000a900473ffffffffffffffffffffffffffffffffffffffff1673ffffffffffffffffffffffffffffffffffffffff163373ffffffffffffffffffffffffffffffffffffffff16145b806110475750611018610a69565b73ffffffffffffffffffffffffffffffffffffffff163373ffffffffffffffffffffffffffffffffffffffff16145b611086576040517f08c379a000000000000000000000000000000000000000000000000000000000815260040161107d90611971565b60405180910390fd5b80600160008673ffffffffffffffffffffffffffffffffffffffff1673ffffffffffffffffffffffffffffffffffffffff16815260200190815260200160002060008567ffffffffffffffff1667ffffffffffffffff16815260200190815260200160002060008473ffffffffffffffffffffffffffffffffffffffff1673ffffffffffffffffffffffffffffffffffffffff16815260200190815260200160002054101561116a576040517f08c379a000000000000000000000000000000000000000000000000000000000815260040161116190611bcf565b60405180910390fd5b80600160008673ffffffffffffffffffffffffffffffffffffffff1673ffffffffffffffffffffffffffffffffffffffff16815260200190815260200160002060008567ffffffffffffffff1667ffffffffffffffff16815260200190815260200160002060008473ffffffffffffffffffffffffffffffffffffffff1673ffffffffffffffffffffffffffffffffffffffff168152602001908152602001600020600082825461121b91906119c0565b9250508190555080600260008673ffffffffffffffffffffffffffffffffffffffff1673ffffffffffffffffffffffffffffffffffffffff168152602001908152602001600020600082825461127191906119c0565b925050819055508267ffffffffffffffff168473ffffffffffffffffffffffffffffffffffffffff167fe86d75909f254e3d8b1577ae0e284eae7cab0f1b4ef41a3b559b59ae9dba85b784600160008973ffffffffffffffffffffffffffffffffffffffff1673ffffffffffffffffffffffffffffffffffffffff16815260200190815260200160002060008867ffffffffffffffff1667ffffffffffffffff16815260200190815260200160002060008773ffffffffffffffffffffffffffffffffffffffff1673ffffffffffffffffffffffffffffffffffffffff1681526020019081526020016000205460405161136c929190611a28565b60405180910390a350505050565b61271081565b611d4c81565b61138e6114d1565b73ffffffffffffffffffffffffffffffffffffffff166113ac610a69565b73ffffffffffffffffffffffffffffffffffffffff161461140b576113cf6114d1565b6040517f118cdaa700000000000000000000000000000000000000000000000000000000815260040161140291906116e1565b60405180910390fd5b565b60008060009054906101000a900473ffffffffffffffffffffffffffffffffffffffff169050816000806101000a81548173ffffffffffffffffffffffffffffffffffffffff021916908373ffffffffffffffffffffffffffffffffffffffff1602179055508173ffffffffffffffffffffffffffffffffffffffff168173ffffffffffffffffffffffffffffffffffffffff167f8be0079c531659141344cd1fd0a4f28419497f9722a3daafe3b4186f6b6457e060405160405180910390a35050565b600033905090565b6000604051905090565b600080fd5b600080fd5b600073ffffffffffffffffffffffffffffffffffffffff82169050919050565b6000611518826114ed565b9050919050565b6115288161150d565b811461153357600080fd5b50565b6000813590506115458161151f565b92915050565b600067ffffffffffffffff82169050919050565b6115688161154b565b811461157357600080fd5b50565b6000813590506115858161155f565b92915050565b6000806000606084860312156115a4576115a36114e3565b5b60006115b286828701611536565b93505060206115c386828701611576565b92505060406115d486828701611536565b9150509250925092565b6000819050919050565b6115f1816115de565b82525050565b600060208201905061160c60008301846115e8565b92915050565b61161b816115de565b811461162657600080fd5b50565b60008135905061163881611612565b92915050565b60008060008060808587031215611658576116576114e3565b5b600061166687828801611536565b945050602061167787828801611576565b935050604061168887828801611536565b925050606061169987828801611629565b91505092959194509250565b6000602082840312156116bb576116ba6114e3565b5b60006116c984828501611536565b91505092915050565b6116db8161150d565b82525050565b60006020820190506116f660008301846116d2565b92915050565b600080600060608486031215611715576117146114e3565b5b600061172386828701611536565b935050602061173486828701611536565b925050604061174586828701611536565b9150509250925092565b600080fd5b600080fd5b6000601f19601f8301169050919050565b7f4e487b7100000000000000000000000000000000000000000000000000000000600052604160045260246000fd5b6117a282611759565b810181811067ffffffffffffffff821117156117c1576117c061176a565b5b80604052505050565b60006117d46114d9565b90506117e08282611799565b919050565b600067ffffffffffffffff821115611800576117ff61176a565b5b61180982611759565b9050602081019050919050565b82818337600083830152505050565b6000611838611833846117e5565b6117ca565b90508281526020810184848401111561185457611853611754565b5b61185f848285611816565b509392505050565b600082601f83011261187c5761187b61174f565b5b813561188c848260208601611825565b91505092915050565b6000602082840312156118ab576118aa6114e3565b5b600082013567ffffffffffffffff8111156118c9576118c86114e8565b5b6118d584828501611867565b91505092915050565b60008115159050919050565b6118f3816118de565b82525050565b600060208201905061190e60008301846118ea565b92915050565b600082825260208201905092915050565b7f556e617574686f72697a65640000000000000000000000000000000000000000600082015250565b600061195b600c83611914565b915061196682611925565b602082019050919050565b6000602082019050818103600083015261198a8161194e565b9050919050565b7f4e487b7100000000000000000000000000000000000000000000000000000000600052601160045260246000fd5b60006119cb826115de565b91506119d6836115de565b92508282039050818111156119ee576119ed611991565b5b92915050565b60006119ff826115de565b9150611a0a836115de565b9250828201905080821115611a2257611a21611991565b5b92915050565b6000604082019050611a3d60008301856116d2565b611a4a60208301846115e8565b9392505050565b6000611a5c826115de565b9150611a67836115de565b9250828202611a75816115de565b91508282048414831517611a8c57611a8b611991565b5b5092915050565b7f4e487b7100000000000000000000000000000000000000000000000000000000600052601260045260246000fd5b6000611acd826115de565b9150611ad8836115de565b925082611ae857611ae7611a93565b5b828204905092915050565b600081519050919050565b60005b83811015611b1c578082015181840152602081019050611b01565b60008484015250505050565b6000611b3382611af3565b611b3d8185611914565b9350611b4d818560208601611afe565b611b5681611759565b840191505092915050565b60006020820190508181036000830152611b7b8184611b28565b905092915050565b7f496e73756666696369656e7420636f6c6c61746572616c206f6e20636861696e600082015250565b6000611bb9602083611914565b9150611bc482611b83565b602082019050919050565b60006020820190508181036000830152611be881611bac565b905091905056fea2646970667358221220385f3d8ad1576017d1fe55d01911f5a79e4c61f9515c42dc6c6150418ea0722464736f6c63430008140033",
  "linkReferences": {},
  "deployedLinkReferences": {}
}