{
  "_format": "hh-sol-artifact-1",
  "contractName": "Client",
  "sourceName": "@chainlink/contracts-ccip/contracts/libraries/Client.sol",
  "abi": [
    {
      "inputs": [],
      "name": "EVM_EXTRA_ARGS_V1_TAG",
      "outputs": [
        {
          "internalType": "bytes4",
          "name": "",
          "type": "bytes4"
        }
      ],
      "stateMutability": "view",
      "type": "function"
    },
    {
      "inputs": [],
      "name": "GENERIC_EXTRA_ARGS_V2_TAG",
      "outputs": [
        {
          "internalType": "bytes4",
          "name": "",
          "type": "bytes4"
        }
      ],
      "stateMutability": "view",
      "type": "function"
    },
    {
      "inputs": [],
      "name": "SUI_ACCOUNT_BYTE_SIZE",
      "outputs": [
        {
          "internalType": "uint256",
          "name": "",
          "type": "uint256"
        }
      ],
      "stateMutability": "view",
      "type": "function"
    },
    {
      "inputs": [],
      "name": "SUI_EXTRA_ARGS_MAX_RECEIVER_OBJECT_IDS",
      "outputs": [
        {
          "internalType": "uint256",
          "name": "",
          "type": "uint256"
        }
      ],
      "stateMutability": "view",
      "type": "function"
    },
    {
      "inputs": [],
      "name": "SUI_EXTRA_ARGS_V1_TAG",
      "outputs": [
        {
          "internalType": "bytes4",
          "name": "",
          "type": "bytes4"
        }
      ],
      "stateMutability": "view",
      "type": "function"
    },
    {
      "inputs": [],
      "name": "SUI_MESSAGING_ACCOUNTS_OVERHEAD",
      "outputs": [
        {
          "internalType": "uint256",
          "name": "",
          "type": "uint256"
        }
      ],
      "stateMutability": "view",
      "type": "function"
    },
    {
      "inputs": [],
      "name": "SUI_TOKEN_TRANSFER_DATA_OVERHEAD",
      "outputs": [
        {
          "internalType": "uint256",
          "name": "",
          "type": "uint256"
        }
      ],
      "stateMutability": "view",
      "type": "function"
    },
    {
      "inputs": [],
      "name": "SVM_ACCOUNT_BYTE_SIZE",
      "outputs": [
        {
          "internalType": "uint256",
          "name": "",
          "type": "uint256"
        }
      ],
      "stateMutability": "view",
      "type": "function"
    },
    {
      "inputs": [],
      "name": "SVM_EXTRA_ARGS_MAX_ACCOUNTS",
      "outputs": [
        {
          "internalType": "uint256",
          "name": "",
          "type": "uint256"
        }
      ],
      "stateMutability": "view",
      "type": "function"
    },
    {
      "inputs": [],
      "name": "SVM_EXTRA_ARGS_V1_TAG",
      "outputs": [
        {
          "internalType": "bytes4",
          "name": "",
          "type": "bytes4"
        }
      ],
      "stateMutability": "view",
      "type": "function"
    },
    {
      "inputs": [],
      "name": "SVM_MESSAGING_ACCOUNTS_OVERHEAD",
      "outputs": [
        {
          "internalType": "uint256",
          "name": "",
          "type": "uint256"
        }
      ],
      "stateMutability": "view",
      "type": "function"
    },
    {
      "inputs": [],
      "name": "SVM_TOKEN_TRANSFER_DATA_OVERHEAD",
      "outputs": [
        {
          "internalType": "uint256",
          "name": "",
          "type": "uint256"
        }
      ],
      "stateMutability": "view",
      "type": "function"
    }
  ],
  "bytecode": "0x610340610053600b82828239805160001a607314610046577f4e487b7100000000000000000000000000000000000000000000000000000000600052600060045260246000fd5b30600052607381538281f3fe73000000000000000000000000000000000000000030146080604052600436106100be5760003560e01c80639713cbbd1161007b5780639713cbbd14610177578063a5dd87d814610195578063b5f958fc146101b3578063bd62fad9146101d1578063f736d63a146101ef578063fe4891121461020d576100be565b80631ac428f8146100c35780633ab8c0d0146100e15780635dd8ee3e146100ff57806371953f601461011d5780637498e3551461013b57806390c21ba614610159575b600080fd5b6100cb61022b565b6040516100d89190610299565b60405180910390f35b6100e9610230565b6040516100f691906102ef565b60405180910390f35b61010761023b565b6040516101149190610299565b60405180910390f35b610125610240565b6040516101329190610299565b60405180910390f35b610143610245565b60405161015091906102ef565b60405180910390f35b610161610250565b60405161016e91906102ef565b60405180910390f35b61017f61025b565b60405161018c9190610299565b60405180910390f35b61019d610261565b6040516101aa91906102ef565b60405180910390f35b6101bb61026c565b6040516101c89190610299565b60405180910390f35b6101d9610271565b6040516101e69190610299565b60405180910390f35b6101f7610276565b6040516102049190610299565b60405180910390f35b61021561027b565b6040516102229190610299565b60405180910390f35b604081565b6397a657c960e01b81565b600281565b602081565b63181dcf1060e01b81565b6321ea4ca960e01b81565b61012c81565b631f3b3aba60e01b81565b600181565b602081565b606c81565b604081565b6000819050919050565b61029381610280565b82525050565b60006020820190506102ae600083018461028a565b92915050565b60007fffffffff0000000000000000000000000000000000000000000000000000000082169050919050565b6102e9816102b4565b82525050565b600060208201905061030460008301846102e0565b9291505056fea26469706673582212204cb9a9b53aba4175b484831c8c4294385b80f53527ffd31dfdc1c0058df223b264736f6c63430008140033",
  "linkReferences": {},
  "deployedLinkReferences": {}
}